{
  "contractName": "AppHandler",
  "abi": [
    {
      "inputs": [],
      "stateMutability": "nonpayable",
      "type": "constructor"
    },
    {
      "anonymous": false,
      "inputs": [
        {
          "indexed": true,
          "internalType": "address",
          "name": "user",
          "type": "address"
        },
        {
          "indexed": false,
          "internalType": "string",
          "name": "agencyId",
          "type": "string"
        },
        {
          "indexed": false,
          "internalType": "string",
          "name": "name",
          "type": "string"
        },
        {
          "indexed": false,
          "internalType": "string",
          "name": "location",
          "type": "string"
        },
        {
          "indexed": false,
          "internalType": "string",
          "name": "email",
          "type": "string"
        },
        {
          "indexed": false,
          "internalType": "string",
          "name": "phoneNumber",
          "type": "string"
        }
      ],
      "name": "AgencyAdded",
      "type": "event"
    },
    {
      "anonymous": false,
      "inputs": [
        {
          "indexed": true,
          "internalType": "address",
          "name": "user",
          "type": "address"
        },
        {
          "indexed": false,
          "internalType": "string",
          "name": "businessName",
          "type": "string"
        },
        {
          "indexed": false,
          "internalType": "string",
          "name": "pan",
          "type": "string"
        },
        {
          "indexed": false,
          "internalType": "string",
          "name": "location",
          "type": "string"
        },
        {
          "indexed": false,
          "internalType": "string",
          "name": "email",
          "type": "string"
        },
        {
          "indexed": false,
          "internalType": "string",
          "name": "phoneNumber",
          "type": "string"
        }
      ],
      "name": "BusinessAdded",
      "type": "event"
    },
    {
      "anonymous": false,
      "inputs": [
        {
          "indexed": true,
          "internalType": "address",
          "name": "user",
          "type": "address"
        },
        {
          "indexed": false,
          "internalType": "uint256",
          "name": "fileId",
          "type": "uint256"
        },
        {
          "indexed": false,
          "internalType": "string",
          "name": "fileHash",
          "type": "string"
        },
        {
          "indexed": false,
          "internalType": "string",
          "name": "description",
          "type": "string"
        },
        {
          "indexed": false,
          "internalType": "string",
          "name": "segmentType",
          "type": "string"
        },
        {
          "indexed": false,
          "internalType": "address",
          "name": "ownerAddress",
          "type": "address"
        }
      ],
      "name": "FileUploaded",
      "type": "event"
    },
    {
      "anonymous": false,
      "inputs": [
        {
          "indexed": true,
          "internalType": "address",
          "name": "user",
          "type": "address"
        },
        {
          "indexed": false,
          "internalType": "string",
          "name": "aicteId",
          "type": "string"
        },
        {
          "indexed": false,
          "internalType": "string",
          "name": "name",
          "type": "string"
        },
        {
          "indexed": false,
          "internalType": "string",
          "name": "location",
          "type": "string"
        },
        {
          "indexed": false,
          "internalType": "string",
          "name": "email",
          "type": "string"
        },
        {
          "indexed": false,
          "internalType": "string",
          "name": "phoneNumber",
          "type": "string"
        }
      ],
      "name": "InstitutionAdded",
      "type": "event"
    },
    {
      "anonymous": false,
      "inputs": [
        {
          "indexed": true,
          "internalType": "address",
          "name": "user",
          "type": "address"
        },
        {
          "indexed": false,
          "internalType": "string",
          "name": "certRecipientNameName",
          "type": "string"
        },
        {
          "indexed": false,
          "internalType": "string",
          "name": "segmentType",
          "type": "string"
        },
        {
          "indexed": false,
          "internalType": "string",
          "name": "email",
          "type": "string"
        },
        {
          "indexed": false,
          "internalType": "string",
          "name": "phoneNumber",
          "type": "string"
        }
      ],
      "name": "RecipientAdded",
      "type": "event"
    },
    {
      "anonymous": false,
      "inputs": [
        {
          "indexed": true,
          "internalType": "address",
          "name": "user",
          "type": "address"
        }
      ],
      "name": "UserAdded",
      "type": "event"
    },
    {
      "inputs": [],
      "name": "fileIdCounter",
      "outputs": [
        {
          "internalType": "uint256",
          "name": "",
          "type": "uint256"
        }
      ],
      "stateMutability": "view",
      "type": "function",
      "constant": true
    },
    {
      "inputs": [],
      "name": "owner",
      "outputs": [
        {
          "internalType": "address",
          "name": "",
          "type": "address"
        }
      ],
      "stateMutability": "view",
      "type": "function",
      "constant": true
    },
    {
      "inputs": [
        {
          "internalType": "address",
          "name": "",
          "type": "address"
        }
      ],
      "name": "userAgencies",
      "outputs": [
        {
          "internalType": "string",
          "name": "agencyId",
          "type": "string"
        },
        {
          "internalType": "string",
          "name": "name",
          "type": "string"
        },
        {
          "internalType": "string",
          "name": "location",
          "type": "string"
        },
        {
          "internalType": "string",
          "name": "email",
          "type": "string"
        },
        {
          "internalType": "string",
          "name": "phoneNumber",
          "type": "string"
        }
      ],
      "stateMutability": "view",
      "type": "function",
      "constant": true
    },
    {
      "inputs": [
        {
          "internalType": "address",
          "name": "",
          "type": "address"
        }
      ],
      "name": "userBusinesses",
      "outputs": [
        {
          "internalType": "string",
          "name": "businessName",
          "type": "string"
        },
        {
          "internalType": "string",
          "name": "pan",
          "type": "string"
        },
        {
          "internalType": "string",
          "name": "location",
          "type": "string"
        },
        {
          "internalType": "string",
          "name": "email",
          "type": "string"
        },
        {
          "internalType": "string",
          "name": "phoneNumber",
          "type": "string"
        }
      ],
      "stateMutability": "view",
      "type": "function",
      "constant": true
    },
    {
      "inputs": [
        {
          "internalType": "address",
          "name": "",
          "type": "address"
        },
        {
          "internalType": "uint256",
          "name": "",
          "type": "uint256"
        }
      ],
      "name": "userCertificates",
      "outputs": [
        {
          "internalType": "uint256",
          "name": "fileId",
          "type": "uint256"
        },
        {
          "internalType": "string",
          "name": "fileHash",
          "type": "string"
        },
        {
          "internalType": "string",
          "name": "description",
          "type": "string"
        },
        {
          "internalType": "string",
          "name": "segmentType",
          "type": "string"
        },
        {
          "internalType": "address",
          "name": "ownerAddress",
          "type": "address"
        }
      ],
      "stateMutability": "view",
      "type": "function",
      "constant": true
    },
    {
      "inputs": [
        {
          "internalType": "address",
          "name": "",
          "type": "address"
        }
      ],
      "name": "userInstitutions",
      "outputs": [
        {
          "internalType": "string",
          "name": "aicteId",
          "type": "string"
        },
        {
          "internalType": "string",
          "name": "name",
          "type": "string"
        },
        {
          "internalType": "string",
          "name": "location",
          "type": "string"
        },
        {
          "internalType": "string",
          "name": "email",
          "type": "string"
        },
        {
          "internalType": "string",
          "name": "phoneNumber",
          "type": "string"
        }
      ],
      "stateMutability": "view",
      "type": "function",
      "constant": true
    },
    {
      "inputs": [
        {
          "internalType": "address",
          "name": "",
          "type": "address"
        }
      ],
      "name": "userRecipients",
      "outputs": [
        {
          "internalType": "string",
          "name": "certRecipientName",
          "type": "string"
        },
        {
          "internalType": "string",
          "name": "segmentType",
          "type": "string"
        },
        {
          "internalType": "string",
          "name": "email",
          "type": "string"
        },
        {
          "internalType": "string",
          "name": "phoneNumber",
          "type": "string"
        }
      ],
      "stateMutability": "view",
      "type": "function",
      "constant": true
    },
    {
      "inputs": [
        {
          "internalType": "string",
          "name": "_aicteId",
          "type": "string"
        },
        {
          "internalType": "string",
          "name": "_name",
          "type": "string"
        },
        {
          "internalType": "string",
          "name": "_location",
          "type": "string"
        },
        {
          "internalType": "string",
          "name": "_email",
          "type": "string"
        },
        {
          "internalType": "string",
          "name": "_phoneNumber",
          "type": "string"
        }
      ],
      "name": "addInstitution",
      "outputs": [],
      "stateMutability": "nonpayable",
      "type": "function"
    },
    {
      "inputs": [
        {
          "internalType": "string",
          "name": "_aicteId",
          "type": "string"
        }
      ],
      "name": "getInstitutionInfo",
      "outputs": [
        {
          "internalType": "string",
          "name": "name",
          "type": "string"
        },
        {
          "internalType": "string",
          "name": "location",
          "type": "string"
        },
        {
          "internalType": "string",
          "name": "email",
          "type": "string"
        },
        {
          "internalType": "string",
          "name": "phoneNumber",
          "type": "string"
        }
      ],
      "stateMutability": "view",
      "type": "function",
      "constant": true
    },
    {
      "inputs": [
        {
          "internalType": "string",
          "name": "_agencyId",
          "type": "string"
        },
        {
          "internalType": "string",
          "name": "_name",
          "type": "string"
        },
        {
          "internalType": "string",
          "name": "_location",
          "type": "string"
        },
        {
          "internalType": "string",
          "name": "_email",
          "type": "string"
        },
        {
          "internalType": "string",
          "name": "_phoneNumber",
          "type": "string"
        }
      ],
      "name": "addAgency",
      "outputs": [],
      "stateMutability": "nonpayable",
      "type": "function"
    },
    {
      "inputs": [
        {
          "internalType": "string",
          "name": "_businessName",
          "type": "string"
        },
        {
          "internalType": "string",
          "name": "_pan",
          "type": "string"
        },
        {
          "internalType": "string",
          "name": "_location",
          "type": "string"
        },
        {
          "internalType": "string",
          "name": "_email",
          "type": "string"
        },
        {
          "internalType": "string",
          "name": "_phoneNumber",
          "type": "string"
        }
      ],
      "name": "addBusiness",
      "outputs": [],
      "stateMutability": "nonpayable",
      "type": "function"
    },
    {
      "inputs": [
        {
          "internalType": "string",
          "name": "_certRecipientName",
          "type": "string"
        },
        {
          "internalType": "string",
          "name": "_segmentType",
          "type": "string"
        },
        {
          "internalType": "string",
          "name": "_email",
          "type": "string"
        },
        {
          "internalType": "string",
          "name": "_phoneNumber",
          "type": "string"
        }
      ],
      "name": "addRecipient",
      "outputs": [],
      "stateMutability": "nonpayable",
      "type": "function"
    },
    {
      "inputs": [
        {
          "internalType": "string",
          "name": "_agencyId",
          "type": "string"
        }
      ],
      "name": "getAgencyInfo",
      "outputs": [
        {
          "internalType": "string",
          "name": "name",
          "type": "string"
        },
        {
          "internalType": "string",
          "name": "location",
          "type": "string"
        },
        {
          "internalType": "string",
          "name": "email",
          "type": "string"
        },
        {
          "internalType": "string",
          "name": "phoneNumber",
          "type": "string"
        }
      ],
      "stateMutability": "view",
      "type": "function",
      "constant": true
    },
    {
      "inputs": [
        {
          "internalType": "string",
          "name": "_pan",
          "type": "string"
        }
      ],
      "name": "getBusinessInfo",
      "outputs": [
        {
          "internalType": "string",
          "name": "businessName",
          "type": "string"
        },
        {
          "internalType": "string",
          "name": "location",
          "type": "string"
        },
        {
          "internalType": "string",
          "name": "email",
          "type": "string"
        },
        {
          "internalType": "string",
          "name": "phoneNumber",
          "type": "string"
        }
      ],
      "stateMutability": "view",
      "type": "function",
      "constant": true
    },
    {
      "inputs": [
        {
          "internalType": "string",
          "name": "_phoneNumber",
          "type": "string"
        }
      ],
      "name": "getRecipientInfo",
      "outputs": [
        {
          "internalType": "string",
          "name": "certRecipient",
          "type": "string"
        },
        {
          "internalType": "string",
          "name": "segmentType",
          "type": "string"
        },
        {
          "internalType": "string",
          "name": "email",
          "type": "string"
        },
        {
          "internalType": "string",
          "name": "phoneNumber",
          "type": "string"
        }
      ],
      "stateMutability": "view",
      "type": "function",
      "constant": true
    },
    {
      "inputs": [
        {
          "internalType": "string",
          "name": "_fileHash",
          "type": "string"
        },
        {
          "internalType": "string",
          "name": "_description",
          "type": "string"
        },
        {
          "internalType": "string",
          "name": "_segmentType",
          "type": "string"
        },
        {
          "internalType": "address",
          "name": "_ownerAddress",
          "type": "address"
        }
      ],
      "name": "uploadCertificate",
      "outputs": [
        {
          "internalType": "uint256",
          "name": "fileId",
          "type": "uint256"
        }
      ],
      "stateMutability": "nonpayable",
      "type": "function"
    },
    {
      "inputs": [
        {
          "internalType": "uint256",
          "name": "fileId",
          "type": "uint256"
        }
      ],
      "name": "getFileInfo",
      "outputs": [
        {
          "internalType": "string",
          "name": "fileHash",
          "type": "string"
        },
        {
          "internalType": "string",
          "name": "description",
          "type": "string"
        },
        {
          "internalType": "string",
          "name": "segmentType",
          "type": "string"
        },
        {
          "internalType": "address",
          "name": "ownerAddress",
          "type": "address"
        }
      ],
      "stateMutability": "view",
      "type": "function",
      "constant": true
    },
    {
      "inputs": [
        {
          "internalType": "address",
          "name": "userAddress",
          "type": "address"
        }
      ],
      "name": "isRegisteredUser",
      "outputs": [
        {
          "internalType": "bool",
          "name": "",
          "type": "bool"
        }
      ],
      "stateMutability": "view",
      "type": "function",
      "constant": true
    }
  ],
  "bytecode": "0x608060405234801561001057600080fd5b50336000806101000a81548173ffffffffffffffffffffffffffffffffffffffff021916908373ffffffffffffffffffffffffffffffffffffffff160217905550600180819055506142aa806100676000396000f3fe608060405234801561001057600080fd5b50600436106101165760003560e01c80636ce67a66116100a2578063c9237b5f11610071578063c9237b5f1461033f578063d7d5603514610373578063ecb15e18146103a6578063f2577174146103c2578063f88afa1d146103f657610116565b80636ce67a66146102b45780638915d511146102e75780638da5cb5b14610303578063ba1f9b411461032157610116565b806339b1c511116100e957806339b1c511146101ce578063401e2596146102015780634f16c6811461021d57806358c8287614610251578063696e93f41461028157610116565b80630175f8891461011b5780631f5bdf5d1461014f57806320c888121461017f5780632715fb26146101b2575b600080fd5b610135600480360381019061013091906132c8565b610429565b6040516101469594939291906133bf565b60405180910390f35b61016960048036038101906101649190613427565b610634565b604051610176919061346f565b60405180910390f35b61019960048036038101906101949190613427565b610740565b6040516101a9949392919061348a565b60405180910390f35b6101cc60048036038101906101c79190613620565b610990565b005b6101e860048036038101906101e39190613727565b610b7e565b6040516101f8949392919061348a565b60405180910390f35b61021b60048036038101906102169190613620565b610fa6565b005b61023760048036038101906102329190613427565b611194565b604051610248959493929190613770565b60405180910390f35b61026b600480360381019061026691906137e6565b611472565b60405161027891906138a1565b60405180910390f35b61029b60048036038101906102969190613727565b6117f1565b6040516102ab949392919061348a565b60405180910390f35b6102ce60048036038101906102c99190613727565b611b87565b6040516102de949392919061348a565b60405180910390f35b61030160048036038101906102fc9190613620565b611faf565b005b61030b61219d565b60405161031891906138bc565b60405180910390f35b6103296121c1565b60405161033691906138a1565b60405180910390f35b61035960048036038101906103549190613427565b6121c7565b60405161036a959493929190613770565b60405180910390f35b61038d600480360381019061038891906138d7565b6124a5565b60405161039d9493929190613904565b60405180910390f35b6103c060048036038101906103bb919061395e565b6128af565b005b6103dc60048036038101906103d79190613427565b612a77565b6040516103ed959493929190613770565b60405180910390f35b610410600480360381019061040b9190613727565b612d55565b604051610420949392919061348a565b60405180910390f35b6006602052816000526040600020818154811061044557600080fd5b90600052602060002090600502016000915091505080600001549080600101805461046f90613a64565b80601f016020809104026020016040519081016040528092919081815260200182805461049b90613a64565b80156104e85780601f106104bd576101008083540402835291602001916104e8565b820191906000526020600020905b8154815290600101906020018083116104cb57829003601f168201915b5050505050908060020180546104fd90613a64565b80601f016020809104026020016040519081016040528092919081815260200182805461052990613a64565b80156105765780601f1061054b57610100808354040283529160200191610576565b820191906000526020600020905b81548152906001019060200180831161055957829003601f168201915b50505050509080600301805461058b90613a64565b80601f01602080910402602001604051908101604052809291908181526020018280546105b790613a64565b80156106045780601f106105d957610100808354040283529160200191610604565b820191906000526020600020905b8154815290600101906020018083116105e757829003601f168201915b5050505050908060040160009054906101000a900473ffffffffffffffffffffffffffffffffffffffff16905085565b600080600260008473ffffffffffffffffffffffffffffffffffffffff1673ffffffffffffffffffffffffffffffffffffffff168152602001908152602001600020600001805461068490613a64565b905011806106e057506000600360008473ffffffffffffffffffffffffffffffffffffffff1673ffffffffffffffffffffffffffffffffffffffff16815260200190815260200160002060000180546106dc90613a64565b9050115b8061073957506000600460008473ffffffffffffffffffffffffffffffffffffffff1673ffffffffffffffffffffffffffffffffffffffff168152602001908152602001600020600001805461073590613a64565b9050115b9050919050565b600560205280600052604060002060009150905080600001805461076390613a64565b80601f016020809104026020016040519081016040528092919081815260200182805461078f90613a64565b80156107dc5780601f106107b1576101008083540402835291602001916107dc565b820191906000526020600020905b8154815290600101906020018083116107bf57829003601f168201915b5050505050908060010180546107f190613a64565b80601f016020809104026020016040519081016040528092919081815260200182805461081d90613a64565b801561086a5780601f1061083f5761010080835404028352916020019161086a565b820191906000526020600020905b81548152906001019060200180831161084d57829003601f168201915b50505050509080600201805461087f90613a64565b80601f01602080910402602001604051908101604052809291908181526020018280546108ab90613a64565b80156108f85780601f106108cd576101008083540402835291602001916108f8565b820191906000526020600020905b8154815290600101906020018083116108db57829003601f168201915b50505050509080600301805461090d90613a64565b80601f016020809104026020016040519081016040528092919081815260200182805461093990613a64565b80156109865780601f1061095b57610100808354040283529160200191610986565b820191906000526020600020905b81548152906001019060200180831161096957829003601f168201915b5050505050905084565b6000600260003373ffffffffffffffffffffffffffffffffffffffff1673ffffffffffffffffffffffffffffffffffffffff16815260200190815260200160002060000180546109df90613a64565b905014610a21576040517f08c379a0000000000000000000000000000000000000000000000000000000008152600401610a1890613ae1565b60405180910390fd5b60006040518060a0016040528087815260200186815260200185815260200184815260200183815250905080600260003373ffffffffffffffffffffffffffffffffffffffff1673ffffffffffffffffffffffffffffffffffffffff1681526020019081526020016000206000820151816000019080519060200190610aa892919061317d565b506020820151816001019080519060200190610ac592919061317d565b506040820151816002019080519060200190610ae292919061317d565b506060820151816003019080519060200190610aff92919061317d565b506080820151816004019080519060200190610b1c92919061317d565b509050503373ffffffffffffffffffffffffffffffffffffffff167fd13586da0098278e5d63bff0d0ad7d2ec6731f0814493fe9414e656d7eb2bde58787878787604051610b6e959493929190613770565b60405180910390a2505050505050565b6060806060806000855111610bc8576040517f08c379a0000000000000000000000000000000000000000000000000000000008152600401610bbf90613b4d565b60405180910390fd5b6000600360003373ffffffffffffffffffffffffffffffffffffffff1673ffffffffffffffffffffffffffffffffffffffff1681526020019081526020016000206040518060a0016040529081600082018054610c2490613a64565b80601f0160208091040260200160405190810160405280929190818152602001828054610c5090613a64565b8015610c9d5780601f10610c7257610100808354040283529160200191610c9d565b820191906000526020600020905b815481529060010190602001808311610c8057829003601f168201915b50505050508152602001600182018054610cb690613a64565b80601f0160208091040260200160405190810160405280929190818152602001828054610ce290613a64565b8015610d2f5780601f10610d0457610100808354040283529160200191610d2f565b820191906000526020600020905b815481529060010190602001808311610d1257829003601f168201915b50505050508152602001600282018054610d4890613a64565b80601f0160208091040260200160405190810160405280929190818152602001828054610d7490613a64565b8015610dc15780601f10610d9657610100808354040283529160200191610dc1565b820191906000526020600020905b815481529060010190602001808311610da457829003601f168201915b50505050508152602001600382018054610dda90613a64565b80601f0160208091040260200160405190810160405280929190818152602001828054610e0690613a64565b8015610e535780601f10610e2857610100808354040283529160200191610e53565b820191906000526020600020905b815481529060010190602001808311610e3657829003601f168201915b50505050508152602001600482018054610e6c90613a64565b80601f0160208091040260200160405190810160405280929190818152602001828054610e9890613a64565b8015610ee55780601f10610eba57610100808354040283529160200191610ee5565b820191906000526020600020905b815481529060010190602001808311610ec857829003601f168201915b505050505081525050905085604051602001610f019190613ba9565b604051602081830303815290604052805190602001208160000151604051602001610f2c9190613ba9565b6040516020818303038152906040528051906020012014610f82576040517f08c379a0000000000000000000000000000000000000000000000000000000008152600401610f7990613c0c565b60405180910390fd5b80602001519450806040015193508060600151925080608001519150509193509193565b6000600460003373ffffffffffffffffffffffffffffffffffffffff1673ffffffffffffffffffffffffffffffffffffffff1681526020019081526020016000206000018054610ff590613a64565b905014611037576040517f08c379a000000000000000000000000000000000000000000000000000000000815260040161102e90613c78565b60405180910390fd5b60006040518060a0016040528087815260200186815260200185815260200184815260200183815250905080600460003373ffffffffffffffffffffffffffffffffffffffff1673ffffffffffffffffffffffffffffffffffffffff16815260200190815260200160002060008201518160000190805190602001906110be92919061317d565b5060208201518160010190805190602001906110db92919061317d565b5060408201518160020190805190602001906110f892919061317d565b50606082015181600301908051906020019061111592919061317d565b50608082015181600401908051906020019061113292919061317d565b509050503373ffffffffffffffffffffffffffffffffffffffff167f754e05f6bddae4ba968ae777d2cf7e684326e8bc8946ab9218f380cf8342307f8787878787604051611184959493929190613770565b60405180910390a2505050505050565b60046020528060005260406000206000915090508060000180546111b790613a64565b80601f01602080910402602001604051908101604052809291908181526020018280546111e390613a64565b80156112305780601f1061120557610100808354040283529160200191611230565b820191906000526020600020905b81548152906001019060200180831161121357829003601f168201915b50505050509080600101805461124590613a64565b80601f016020809104026020016040519081016040528092919081815260200182805461127190613a64565b80156112be5780601f10611293576101008083540402835291602001916112be565b820191906000526020600020905b8154815290600101906020018083116112a157829003601f168201915b5050505050908060020180546112d390613a64565b80601f01602080910402602001604051908101604052809291908181526020018280546112ff90613a64565b801561134c5780601f106113215761010080835404028352916020019161134c565b820191906000526020600020905b81548152906001019060200180831161132f57829003601f168201915b50505050509080600301805461136190613a64565b80601f016020809104026020016040519081016040528092919081815260200182805461138d90613a64565b80156113da5780601f106113af576101008083540402835291602001916113da565b820191906000526020600020905b8154815290600101906020018083116113bd57829003601f168201915b5050505050908060040180546113ef90613a64565b80601f016020809104026020016040519081016040528092919081815260200182805461141b90613a64565b80156114685780601f1061143d57610100808354040283529160200191611468565b820191906000526020600020905b81548152906001019060200180831161144b57829003601f168201915b5050505050905085565b60008073ffffffffffffffffffffffffffffffffffffffff168273ffffffffffffffffffffffffffffffffffffffff16036114e2576040517f08c379a00000000000000000000000000000000000000000000000000000000081526004016114d990613ce4565b60405180910390fd5b6000600260003373ffffffffffffffffffffffffffffffffffffffff1673ffffffffffffffffffffffffffffffffffffffff168152602001908152602001600020600001805461153190613a64565b9050118061158d57506000600360003373ffffffffffffffffffffffffffffffffffffffff1673ffffffffffffffffffffffffffffffffffffffff168152602001908152602001600020600001805461158990613a64565b9050115b806115e657506000600460003373ffffffffffffffffffffffffffffffffffffffff1673ffffffffffffffffffffffffffffffffffffffff16815260200190815260200160002060000180546115e290613a64565b9050115b611625576040517f08c379a000000000000000000000000000000000000000000000000000000000815260040161161c90613d76565b60405180910390fd5b6001600081548092919061163890613dc5565b91905055905060006040518060a001604052808381526020018781526020018681526020018581526020018473ffffffffffffffffffffffffffffffffffffffff168152509050600660003373ffffffffffffffffffffffffffffffffffffffff1673ffffffffffffffffffffffffffffffffffffffff16815260200190815260200160002081908060018154018082558091505060019003906000526020600020906005020160009091909190915060008201518160000155602082015181600101908051906020019061170e92919061317d565b50604082015181600201908051906020019061172b92919061317d565b50606082015181600301908051906020019061174892919061317d565b5060808201518160040160006101000a81548173ffffffffffffffffffffffffffffffffffffffff021916908373ffffffffffffffffffffffffffffffffffffffff16021790555050503373ffffffffffffffffffffffffffffffffffffffff167f4a4d4c97d30b7d9829e30a3df4a0b0637be5f3cc9061d487bae5ce7b3a9c5f1c83888888886040516117e09594939291906133bf565b60405180910390a250949350505050565b606080606080600085511161183b576040517f08c379a000000000000000000000000000000000000000000000000000000000815260040161183290613e59565b60405180910390fd5b6000600560003373ffffffffffffffffffffffffffffffffffffffff1673ffffffffffffffffffffffffffffffffffffffff16815260200190815260200160002060405180608001604052908160008201805461189790613a64565b80601f01602080910402602001604051908101604052809291908181526020018280546118c390613a64565b80156119105780601f106118e557610100808354040283529160200191611910565b820191906000526020600020905b8154815290600101906020018083116118f357829003601f168201915b5050505050815260200160018201805461192990613a64565b80601f016020809104026020016040519081016040528092919081815260200182805461195590613a64565b80156119a25780601f10611977576101008083540402835291602001916119a2565b820191906000526020600020905b81548152906001019060200180831161198557829003601f168201915b505050505081526020016002820180546119bb90613a64565b80601f01602080910402602001604051908101604052809291908181526020018280546119e790613a64565b8015611a345780601f10611a0957610100808354040283529160200191611a34565b820191906000526020600020905b815481529060010190602001808311611a1757829003601f168201915b50505050508152602001600382018054611a4d90613a64565b80601f0160208091040260200160405190810160405280929190818152602001828054611a7990613a64565b8015611ac65780601f10611a9b57610100808354040283529160200191611ac6565b820191906000526020600020905b815481529060010190602001808311611aa957829003601f168201915b505050505081525050905085604051602001611ae29190613ba9565b604051602081830303815290604052805190602001208160600151604051602001611b0d9190613ba9565b6040516020818303038152906040528051906020012014611b63576040517f08c379a0000000000000000000000000000000000000000000000000000000008152600401611b5a90613ec5565b60405180910390fd5b80600001519450806020015193508060400151925080606001519150509193509193565b6060806060806000855111611bd1576040517f08c379a0000000000000000000000000000000000000000000000000000000008152600401611bc890613f31565b60405180910390fd5b6000600460003373ffffffffffffffffffffffffffffffffffffffff1673ffffffffffffffffffffffffffffffffffffffff1681526020019081526020016000206040518060a0016040529081600082018054611c2d90613a64565b80601f0160208091040260200160405190810160405280929190818152602001828054611c5990613a64565b8015611ca65780601f10611c7b57610100808354040283529160200191611ca6565b820191906000526020600020905b815481529060010190602001808311611c8957829003601f168201915b50505050508152602001600182018054611cbf90613a64565b80601f0160208091040260200160405190810160405280929190818152602001828054611ceb90613a64565b8015611d385780601f10611d0d57610100808354040283529160200191611d38565b820191906000526020600020905b815481529060010190602001808311611d1b57829003601f168201915b50505050508152602001600282018054611d5190613a64565b80601f0160208091040260200160405190810160405280929190818152602001828054611d7d90613a64565b8015611dca5780601f10611d9f57610100808354040283529160200191611dca565b820191906000526020600020905b815481529060010190602001808311611dad57829003601f168201915b50505050508152602001600382018054611de390613a64565b80601f0160208091040260200160405190810160405280929190818152602001828054611e0f90613a64565b8015611e5c5780601f10611e3157610100808354040283529160200191611e5c565b820191906000526020600020905b815481529060010190602001808311611e3f57829003601f168201915b50505050508152602001600482018054611e7590613a64565b80601f0160208091040260200160405190810160405280929190818152602001828054611ea190613a64565b8015611eee5780601f10611ec357610100808354040283529160200191611eee565b820191906000526020600020905b815481529060010190602001808311611ed157829003601f168201915b505050505081525050905085604051602001611f0a9190613ba9565b604051602081830303815290604052805190602001208160200151604051602001611f359190613ba9565b6040516020818303038152906040528051906020012014611f8b576040517f08c379a0000000000000000000000000000000000000000000000000000000008152600401611f8290613f9d565b60405180910390fd5b80600001519450806040015193508060600151925080608001519150509193509193565b6000600360003373ffffffffffffffffffffffffffffffffffffffff1673ffffffffffffffffffffffffffffffffffffffff1681526020019081526020016000206000018054611ffe90613a64565b905014612040576040517f08c379a000000000000000000000000000000000000000000000000000000000815260040161203790614009565b60405180910390fd5b60006040518060a0016040528087815260200186815260200185815260200184815260200183815250905080600360003373ffffffffffffffffffffffffffffffffffffffff1673ffffffffffffffffffffffffffffffffffffffff16815260200190815260200160002060008201518160000190805190602001906120c792919061317d565b5060208201518160010190805190602001906120e492919061317d565b50604082015181600201908051906020019061210192919061317d565b50606082015181600301908051906020019061211e92919061317d565b50608082015181600401908051906020019061213b92919061317d565b509050503373ffffffffffffffffffffffffffffffffffffffff167f1be8c41d05e1bdb8a53f2c3cd41961fe988921e8a882d33261f085aa18b559c3878787878760405161218d959493929190613770565b60405180910390a2505050505050565b60008054906101000a900473ffffffffffffffffffffffffffffffffffffffff1681565b60015481565b60036020528060005260406000206000915090508060000180546121ea90613a64565b80601f016020809104026020016040519081016040528092919081815260200182805461221690613a64565b80156122635780601f1061223857610100808354040283529160200191612263565b820191906000526020600020905b81548152906001019060200180831161224657829003601f168201915b50505050509080600101805461227890613a64565b80601f01602080910402602001604051908101604052809291908181526020018280546122a490613a64565b80156122f15780601f106122c6576101008083540402835291602001916122f1565b820191906000526020600020905b8154815290600101906020018083116122d457829003601f168201915b50505050509080600201805461230690613a64565b80601f016020809104026020016040519081016040528092919081815260200182805461233290613a64565b801561237f5780601f106123545761010080835404028352916020019161237f565b820191906000526020600020905b81548152906001019060200180831161236257829003601f168201915b50505050509080600301805461239490613a64565b80601f01602080910402602001604051908101604052809291908181526020018280546123c090613a64565b801561240d5780601f106123e25761010080835404028352916020019161240d565b820191906000526020600020905b8154815290600101906020018083116123f057829003601f168201915b50505050509080600401805461242290613a64565b80601f016020809104026020016040519081016040528092919081815260200182805461244e90613a64565b801561249b5780601f106124705761010080835404028352916020019161249b565b820191906000526020600020905b81548152906001019060200180831161247e57829003601f168201915b5050505050905085565b6060806060600080851180156124bd57506001548511155b6124fc576040517f08c379a00000000000000000000000000000000000000000000000000000000081526004016124f390614075565b60405180910390fd5b60005b600660003373ffffffffffffffffffffffffffffffffffffffff1673ffffffffffffffffffffffffffffffffffffffff1681526020019081526020016000208054905081101561286c5785600660003373ffffffffffffffffffffffffffffffffffffffff1673ffffffffffffffffffffffffffffffffffffffff168152602001908152602001600020828154811061259b5761259a614095565b5b90600052602060002090600502016000015403612859576000600660003373ffffffffffffffffffffffffffffffffffffffff1673ffffffffffffffffffffffffffffffffffffffff168152602001908152602001600020828154811061260557612604614095565b5b90600052602060002090600502016040518060a00160405290816000820154815260200160018201805461263890613a64565b80601f016020809104026020016040519081016040528092919081815260200182805461266490613a64565b80156126b15780601f10612686576101008083540402835291602001916126b1565b820191906000526020600020905b81548152906001019060200180831161269457829003601f168201915b505050505081526020016002820180546126ca90613a64565b80601f01602080910402602001604051908101604052809291908181526020018280546126f690613a64565b80156127435780601f1061271857610100808354040283529160200191612743565b820191906000526020600020905b81548152906001019060200180831161272657829003601f168201915b5050505050815260200160038201805461275c90613a64565b80601f016020809104026020016040519081016040528092919081815260200182805461278890613a64565b80156127d55780601f106127aa576101008083540402835291602001916127d5565b820191906000526020600020905b8154815290600101906020018083116127b857829003601f168201915b505050505081526020016004820160009054906101000a900473ffffffffffffffffffffffffffffffffffffffff1673ffffffffffffffffffffffffffffffffffffffff1673ffffffffffffffffffffffffffffffffffffffff168152505090508060200151955080604001519450806060015193508060800151925050506128a8565b808061286490613dc5565b9150506124ff565b506040517f08c379a000000000000000000000000000000000000000000000000000000000815260040161289f90614110565b60405180910390fd5b9193509193565b6000600560003373ffffffffffffffffffffffffffffffffffffffff1673ffffffffffffffffffffffffffffffffffffffff16815260200190815260200160002060000180546128fe90613a64565b905014612940576040517f08c379a00000000000000000000000000000000000000000000000000000000081526004016129379061417c565b60405180910390fd5b6000604051806080016040528086815260200185815260200184815260200183815250905080600560003373ffffffffffffffffffffffffffffffffffffffff1673ffffffffffffffffffffffffffffffffffffffff16815260200190815260200160002060008201518160000190805190602001906129c192919061317d565b5060208201518160010190805190602001906129de92919061317d565b5060408201518160020190805190602001906129fb92919061317d565b506060820151816003019080519060200190612a1892919061317d565b509050503373ffffffffffffffffffffffffffffffffffffffff167f2f4185d13cf4ceb8250ec0f22a7ce4682a389ad440db979e21909a18cdcdfc5e86868686604051612a68949392919061348a565b60405180910390a25050505050565b6002602052806000526040600020600091509050806000018054612a9a90613a64565b80601f0160208091040260200160405190810160405280929190818152602001828054612ac690613a64565b8015612b135780601f10612ae857610100808354040283529160200191612b13565b820191906000526020600020905b815481529060010190602001808311612af657829003601f168201915b505050505090806001018054612b2890613a64565b80601f0160208091040260200160405190810160405280929190818152602001828054612b5490613a64565b8015612ba15780601f10612b7657610100808354040283529160200191612ba1565b820191906000526020600020905b815481529060010190602001808311612b8457829003601f168201915b505050505090806002018054612bb690613a64565b80601f0160208091040260200160405190810160405280929190818152602001828054612be290613a64565b8015612c2f5780601f10612c0457610100808354040283529160200191612c2f565b820191906000526020600020905b815481529060010190602001808311612c1257829003601f168201915b505050505090806003018054612c4490613a64565b80601f0160208091040260200160405190810160405280929190818152602001828054612c7090613a64565b8015612cbd5780601f10612c9257610100808354040283529160200191612cbd565b820191906000526020600020905b815481529060010190602001808311612ca057829003601f168201915b505050505090806004018054612cd290613a64565b80601f0160208091040260200160405190810160405280929190818152602001828054612cfe90613a64565b8015612d4b5780601f10612d2057610100808354040283529160200191612d4b565b820191906000526020600020905b815481529060010190602001808311612d2e57829003601f168201915b5050505050905085565b6060806060806000855111612d9f576040517f08c379a0000000000000000000000000000000000000000000000000000000008152600401612d96906141e8565b60405180910390fd5b6000600260003373ffffffffffffffffffffffffffffffffffffffff1673ffffffffffffffffffffffffffffffffffffffff1681526020019081526020016000206040518060a0016040529081600082018054612dfb90613a64565b80601f0160208091040260200160405190810160405280929190818152602001828054612e2790613a64565b8015612e745780601f10612e4957610100808354040283529160200191612e74565b820191906000526020600020905b815481529060010190602001808311612e5757829003601f168201915b50505050508152602001600182018054612e8d90613a64565b80601f0160208091040260200160405190810160405280929190818152602001828054612eb990613a64565b8015612f065780601f10612edb57610100808354040283529160200191612f06565b820191906000526020600020905b815481529060010190602001808311612ee957829003601f168201915b50505050508152602001600282018054612f1f90613a64565b80601f0160208091040260200160405190810160405280929190818152602001828054612f4b90613a64565b8015612f985780601f10612f6d57610100808354040283529160200191612f98565b820191906000526020600020905b815481529060010190602001808311612f7b57829003601f168201915b50505050508152602001600382018054612fb190613a64565b80601f0160208091040260200160405190810160405280929190818152602001828054612fdd90613a64565b801561302a5780601f10612fff5761010080835404028352916020019161302a565b820191906000526020600020905b81548152906001019060200180831161300d57829003601f168201915b5050505050815260200160048201805461304390613a64565b80601f016020809104026020016040519081016040528092919081815260200182805461306f90613a64565b80156130bc5780601f10613091576101008083540402835291602001916130bc565b820191906000526020600020905b81548152906001019060200180831161309f57829003601f168201915b5050505050815250509050856040516020016130d89190613ba9565b6040516020818303038152906040528051906020012081600001516040516020016131039190613ba9565b6040516020818303038152906040528051906020012014613159576040517f08c379a000000000000000000000000000000000000000000000000000000000815260040161315090614254565b60405180910390fd5b80602001519450806040015193508060600151925080608001519150509193509193565b82805461318990613a64565b90600052602060002090601f0160209004810192826131ab57600085556131f2565b82601f106131c457805160ff19168380011785556131f2565b828001600101855582156131f2579182015b828111156131f15782518255916020019190600101906131d6565b5b5090506131ff9190613203565b5090565b5b8082111561321c576000816000905550600101613204565b5090565b6000604051905090565b600080fd5b600080fd5b600073ffffffffffffffffffffffffffffffffffffffff82169050919050565b600061325f82613234565b9050919050565b61326f81613254565b811461327a57600080fd5b50565b60008135905061328c81613266565b92915050565b6000819050919050565b6132a581613292565b81146132b057600080fd5b50565b6000813590506132c28161329c565b92915050565b600080604083850312156132df576132de61322a565b5b60006132ed8582860161327d565b92505060206132fe858286016132b3565b9150509250929050565b61331181613292565b82525050565b600081519050919050565b600082825260208201905092915050565b60005b83811015613351578082015181840152602081019050613336565b83811115613360576000848401525b50505050565b6000601f19601f8301169050919050565b600061338282613317565b61338c8185613322565b935061339c818560208601613333565b6133a581613366565b840191505092915050565b6133b981613254565b82525050565b600060a0820190506133d46000830188613308565b81810360208301526133e68187613377565b905081810360408301526133fa8186613377565b9050818103606083015261340e8185613377565b905061341d60808301846133b0565b9695505050505050565b60006020828403121561343d5761343c61322a565b5b600061344b8482850161327d565b91505092915050565b60008115159050919050565b61346981613454565b82525050565b60006020820190506134846000830184613460565b92915050565b600060808201905081810360008301526134a48187613377565b905081810360208301526134b88186613377565b905081810360408301526134cc8185613377565b905081810360608301526134e08184613377565b905095945050505050565b600080fd5b600080fd5b7f4e487b7100000000000000000000000000000000000000000000000000000000600052604160045260246000fd5b61352d82613366565b810181811067ffffffffffffffff8211171561354c5761354b6134f5565b5b80604052505050565b600061355f613220565b905061356b8282613524565b919050565b600067ffffffffffffffff82111561358b5761358a6134f5565b5b61359482613366565b9050602081019050919050565b82818337600083830152505050565b60006135c36135be84613570565b613555565b9050828152602081018484840111156135df576135de6134f0565b5b6135ea8482856135a1565b509392505050565b600082601f830112613607576136066134eb565b5b81356136178482602086016135b0565b91505092915050565b600080600080600060a0868803121561363c5761363b61322a565b5b600086013567ffffffffffffffff81111561365a5761365961322f565b5b613666888289016135f2565b955050602086013567ffffffffffffffff8111156136875761368661322f565b5b613693888289016135f2565b945050604086013567ffffffffffffffff8111156136b4576136b361322f565b5b6136c0888289016135f2565b935050606086013567ffffffffffffffff8111156136e1576136e061322f565b5b6136ed888289016135f2565b925050608086013567ffffffffffffffff81111561370e5761370d61322f565b5b61371a888289016135f2565b9150509295509295909350565b60006020828403121561373d5761373c61322a565b5b600082013567ffffffffffffffff81111561375b5761375a61322f565b5b613767848285016135f2565b91505092915050565b600060a082019050818103600083015261378a8188613377565b9050818103602083015261379e8187613377565b905081810360408301526137b28186613377565b905081810360608301526137c68185613377565b905081810360808301526137da8184613377565b90509695505050505050565b60008060008060808587031215613800576137ff61322a565b5b600085013567ffffffffffffffff81111561381e5761381d61322f565b5b61382a878288016135f2565b945050602085013567ffffffffffffffff81111561384b5761384a61322f565b5b613857878288016135f2565b935050604085013567ffffffffffffffff8111156138785761387761322f565b5b613884878288016135f2565b92505060606138958782880161327d565b91505092959194509250565b60006020820190506138b66000830184613308565b92915050565b60006020820190506138d160008301846133b0565b92915050565b6000602082840312156138ed576138ec61322a565b5b60006138fb848285016132b3565b91505092915050565b6000608082019050818103600083015261391e8187613377565b905081810360208301526139328186613377565b905081810360408301526139468185613377565b905061395560608301846133b0565b95945050505050565b600080600080608085870312156139785761397761322a565b5b600085013567ffffffffffffffff8111156139965761399561322f565b5b6139a2878288016135f2565b945050602085013567ffffffffffffffff8111156139c3576139c261322f565b5b6139cf878288016135f2565b935050604085013567ffffffffffffffff8111156139f0576139ef61322f565b5b6139fc878288016135f2565b925050606085013567ffffffffffffffff811115613a1d57613a1c61322f565b5b613a29878288016135f2565b91505092959194509250565b7f4e487b7100000000000000000000000000000000000000000000000000000000600052602260045260246000fd5b60006002820490506001821680613a7c57607f821691505b602082108103613a8f57613a8e613a35565b5b50919050565b7f496e737469747574696f6e20616c726561647920616464656400000000000000600082015250565b6000613acb601983613322565b9150613ad682613a95565b602082019050919050565b60006020820190508181036000830152613afa81613abe565b9050919050565b7f496e76616c6964204167656e6379204944000000000000000000000000000000600082015250565b6000613b37601183613322565b9150613b4282613b01565b602082019050919050565b60006020820190508181036000830152613b6681613b2a565b9050919050565b600081905092915050565b6000613b8382613317565b613b8d8185613b6d565b9350613b9d818560208601613333565b80840191505092915050565b6000613bb58284613b78565b915081905092915050565b7f4167656e6379206e6f7420666f756e6400000000000000000000000000000000600082015250565b6000613bf6601083613322565b9150613c0182613bc0565b602082019050919050565b60006020820190508181036000830152613c2581613be9565b9050919050565b7f427573696e65737320616c726561647920616464656400000000000000000000600082015250565b6000613c62601683613322565b9150613c6d82613c2c565b602082019050919050565b60006020820190508181036000830152613c9181613c55565b9050919050565b7f496e76616c6964206f776e657220616464726573730000000000000000000000600082015250565b6000613cce601583613322565b9150613cd982613c98565b602082019050919050565b60006020820190508181036000830152613cfd81613cc1565b9050919050565b7f55736572206e6f74207265676973746572656420696e20616e79207365676d6560008201527f6e74000000000000000000000000000000000000000000000000000000000000602082015250565b6000613d60602283613322565b9150613d6b82613d04565b604082019050919050565b60006020820190508181036000830152613d8f81613d53565b9050919050565b7f4e487b7100000000000000000000000000000000000000000000000000000000600052601160045260246000fd5b6000613dd082613292565b91507fffffffffffffffffffffffffffffffffffffffffffffffffffffffffffffffff8203613e0257613e01613d96565b5b600182019050919050565b7f496e76616c69642050686f6e65204e756d626572000000000000000000000000600082015250565b6000613e43601483613322565b9150613e4e82613e0d565b602082019050919050565b60006020820190508181036000830152613e7281613e36565b9050919050565b7f526563697069656e74206e6f7420666f756e6400000000000000000000000000600082015250565b6000613eaf601383613322565b9150613eba82613e79565b602082019050919050565b60006020820190508181036000830152613ede81613ea2565b9050919050565b7f496e76616c69642050414e000000000000000000000000000000000000000000600082015250565b6000613f1b600b83613322565b9150613f2682613ee5565b602082019050919050565b60006020820190508181036000830152613f4a81613f0e565b9050919050565b7f427573696e657373206e6f7420666f756e640000000000000000000000000000600082015250565b6000613f87601283613322565b9150613f9282613f51565b602082019050919050565b60006020820190508181036000830152613fb681613f7a565b9050919050565b7f4167656e637920616c7265616479206164646564000000000000000000000000600082015250565b6000613ff3601483613322565b9150613ffe82613fbd565b602082019050919050565b6000602082019050818103600083015261402281613fe6565b9050919050565b7f496e76616c69642066696c654964000000000000000000000000000000000000600082015250565b600061405f600e83613322565b915061406a82614029565b602082019050919050565b6000602082019050818103600083015261408e81614052565b9050919050565b7f4e487b7100000000000000000000000000000000000000000000000000000000600052603260045260246000fd5b7f46696c65206e6f7420666f756e64000000000000000000000000000000000000600082015250565b60006140fa600e83613322565b9150614105826140c4565b602082019050919050565b60006020820190508181036000830152614129816140ed565b9050919050565b7f526563697069656e7420616c7265616479206164646564000000000000000000600082015250565b6000614166601783613322565b915061417182614130565b602082019050919050565b6000602082019050818103600083015261419581614159565b9050919050565b7f496e76616c696420414943544520494400000000000000000000000000000000600082015250565b60006141d2601083613322565b91506141dd8261419c565b602082019050919050565b60006020820190508181036000830152614201816141c5565b9050919050565b7f496e737469747574696f6e206e6f7420666f756e640000000000000000000000600082015250565b600061423e601583613322565b915061424982614208565b602082019050919050565b6000602082019050818103600083015261426d81614231565b905091905056fea26469706673582212201501b82afe89306297af2c9fa1e82d3b74c5a1a01cb672376f0bc464872a78eb64736f6c634300080e0033",
  "immutableReferences": {},
  "source": "// SPDX-License-Identifier: MIT\npragma solidity ^0.8.0;\n\ncontract AppHandler {\n    address public owner;\n    uint256 public fileIdCounter;\n\n    struct Institution {\n        string aicteId;\n        string name;\n        string location;\n        string email;\n        string phoneNumber;\n    }\n\n    struct Agency {\n        string agencyId;\n        string name;\n        string location;\n        string email;\n        string phoneNumber;\n    }\n\n    struct Business {\n        string businessName;\n        string pan;\n        string location;\n        string email;\n        string phoneNumber;\n    }\n\n    struct Recipient {\n        string certRecipientName;\n        string segmentType;\n        string email;\n        string phoneNumber;\n    }\n\n    struct Certificate {\n        uint256 fileId;\n        string fileHash;\n        string description;\n        string segmentType;\n        address ownerAddress;\n    }\n\n    mapping(address => Institution) public userInstitutions;\n    mapping(address => Agency) public userAgencies;\n    mapping(address => Business) public userBusinesses;\n    mapping(address => Recipient) public userRecipients;\n    mapping(address => Certificate[]) public userCertificates;\n\n    event UserAdded(address indexed user);\n    event FileUploaded(\n    address indexed user,\n    uint256 fileId,\n    string fileHash,\n    string description,\n    string segmentType,\n    address ownerAddress\n    );\n    event InstitutionAdded(\n        address indexed user,\n        string aicteId,\n        string name,\n        string location,\n        string email,\n        string phoneNumber\n    );\n    event AgencyAdded(\n        address indexed user,\n        string agencyId,\n        string name,\n        string location,\n        string email,\n        string phoneNumber\n    );\n    event BusinessAdded(\n        address indexed user,\n        string businessName,\n        string pan,\n        string location,\n        string email,\n        string phoneNumber\n    );\n    event RecipientAdded(\n        address indexed user,\n        string certRecipientNameName,\n        string segmentType,\n        string email,\n        string phoneNumber\n    );\n\n    modifier onlyOwner() {\n        require(msg.sender == owner, \"Only the owner can call this function\");\n        _;\n    }\n\n    modifier userExists() {\n        require(userCertificates[msg.sender].length > 0, \"User does not exist\");\n        _;\n    }\n\n    constructor() {\n        owner = msg.sender;\n        fileIdCounter = 1;\n    }\n\n    function addInstitution(\n    string memory _aicteId,\n    string memory _name,\n    string memory _location,\n    string memory _email,\n    string memory _phoneNumber\n) external {\n    require(\n        bytes(userInstitutions[msg.sender].aicteId).length == 0,\n        \"Institution already added\"\n    );\n    Institution memory newInstitution = Institution({\n        aicteId: _aicteId,\n        name: _name,\n        location: _location,\n        email: _email,\n        phoneNumber: _phoneNumber\n    });\n    userInstitutions[msg.sender] = newInstitution;\n    emit InstitutionAdded(\n        msg.sender,\n        _aicteId,\n        _name,\n        _location,\n        _email,\n        _phoneNumber\n    );\n    }\n\n    function getInstitutionInfo(string memory _aicteId)\n    external\n    view\n    returns (\n        string memory name,\n        string memory location,\n        string memory email,\n        string memory phoneNumber\n    )\n{\n    require(bytes(_aicteId).length > 0, \"Invalid AICTE ID\");\n\n    Institution memory institution = userInstitutions[msg.sender];\n\n    // Check if the institution with the provided AICTE ID exists\n    require(\n        keccak256(abi.encodePacked(institution.aicteId)) ==\n            keccak256(abi.encodePacked(_aicteId)),\n        \"Institution not found\"\n    );\n\n    name = institution.name;\n    location = institution.location;\n    email = institution.email;\n    phoneNumber = institution.phoneNumber;\n}\n\n    function addAgency(\n    string memory _agencyId,\n    string memory _name,\n    string memory _location,\n    string memory _email,\n    string memory _phoneNumber\n) external {\n    require(\n        bytes(userAgencies[msg.sender].agencyId).length == 0,\n        \"Agency already added\"\n    );\n    Agency memory newAgency = Agency({\n        agencyId: _agencyId,\n        name: _name,\n        location: _location,\n        email: _email,\n        phoneNumber: _phoneNumber\n    });\n    userAgencies[msg.sender] = newAgency;\n    emit AgencyAdded(\n        msg.sender,\n        _agencyId,\n        _name,\n        _location,\n        _email,\n        _phoneNumber\n    );\n}\n\n    function addBusiness(\n    string memory _businessName,\n    string memory _pan,\n    string memory _location,\n    string memory _email,\n    string memory _phoneNumber\n) external {\n    require(\n        bytes(userBusinesses[msg.sender].businessName).length == 0,\n        \"Business already added\"\n    );\n    Business memory newBusiness = Business({\n        businessName: _businessName,\n        pan: _pan,\n        location: _location,\n        email: _email,\n        phoneNumber: _phoneNumber\n    });\n    userBusinesses[msg.sender] = newBusiness;\n    emit BusinessAdded(\n        msg.sender,\n        _businessName,\n        _pan,\n        _location,\n        _email,\n        _phoneNumber\n    );\n}\n\n    function addRecipient(\n    string memory _certRecipientName,\n    string memory _segmentType,\n    string memory _email,\n    string memory _phoneNumber\n) external {\n    require(\n        bytes(userRecipients[msg.sender].certRecipientName).length == 0,\n        \"Recipient already added\"\n    );\n    Recipient memory newRecipient = Recipient({\n        certRecipientName: _certRecipientName,\n        segmentType: _segmentType,\n        email: _email,\n        phoneNumber: _phoneNumber\n    });\n    userRecipients[msg.sender] = newRecipient;\n    emit RecipientAdded(\n        msg.sender,\n        _certRecipientName,\n        _segmentType,\n        _email,\n        _phoneNumber\n    );\n}\n\nfunction getAgencyInfo(string memory _agencyId)\n    external\n    view\n    returns (\n        string memory name,\n        string memory location,\n        string memory email,\n        string memory phoneNumber\n    )\n{\n    require(bytes(_agencyId).length > 0, \"Invalid Agency ID\");\n\n    Agency memory agency = userAgencies[msg.sender];\n\n    // Check if the agency with the provided ID exists\n    require(\n        keccak256(abi.encodePacked(agency.agencyId)) ==\n            keccak256(abi.encodePacked(_agencyId)),\n        \"Agency not found\"\n    );\n\n    name = agency.name;\n    location = agency.location;\n    email = agency.email;\n    phoneNumber = agency.phoneNumber;\n}\n\nfunction getBusinessInfo(string memory _pan)\n    external\n    view\n    returns (\n        string memory businessName,\n        string memory location,\n        string memory email,\n        string memory phoneNumber\n    )\n{\n    require(bytes(_pan).length > 0, \"Invalid PAN\");\n\n    Business memory business = userBusinesses[msg.sender];\n\n    // Check if the business with the provided PAN exists\n    require(\n        keccak256(abi.encodePacked(business.pan)) ==\n            keccak256(abi.encodePacked(_pan)),\n        \"Business not found\"\n    );\n\n    businessName = business.businessName;\n    location = business.location;\n    email = business.email;\n    phoneNumber = business.phoneNumber;\n}\n\nfunction getRecipientInfo(string memory _phoneNumber)\n    external\n    view\n    returns (\n        string memory certRecipient,\n        string memory segmentType,\n        string memory email,\n        string memory phoneNumber\n    )\n{\n    require(bytes(_phoneNumber).length > 0, \"Invalid Phone Number\");\n\n    Recipient memory recipient = userRecipients[msg.sender];\n\n    // Check if the recipient with the provided phone number exists\n    require(\n        keccak256(abi.encodePacked(recipient.phoneNumber)) ==\n            keccak256(abi.encodePacked(_phoneNumber)),\n        \"Recipient not found\"\n    );\n\n    certRecipient = recipient.certRecipientName;\n    segmentType = recipient.segmentType;\n    email = recipient.email;\n    phoneNumber = recipient.phoneNumber;\n}\n\n    function uploadCertificate(\n    string memory _fileHash,\n    string memory _description,\n    string memory _segmentType,\n    address _ownerAddress\n) external returns (uint256 fileId) {\n    require(_ownerAddress != address(0), \"Invalid owner address\");\n\n    // Check if msg.sender is a registered user in any of the segments\n    require(\n        bytes(userInstitutions[msg.sender].aicteId).length > 0 ||\n            bytes(userAgencies[msg.sender].agencyId).length > 0 ||\n            bytes(userBusinesses[msg.sender].businessName).length > 0,\n        \"User not registered in any segment\"\n    );\n    fileId = fileIdCounter++;\n    Certificate memory newCertificate = Certificate(\n        fileId,\n        _fileHash,\n        _description,\n        _segmentType,\n        _ownerAddress\n    );\n    userCertificates[msg.sender].push(newCertificate);\n    emit FileUploaded(\n        msg.sender,\n        fileId,\n        _fileHash,\n        _description,\n        _segmentType,\n        _ownerAddress\n    );\n}\n\nfunction getFileInfo(uint256 fileId)\n    external\n    view\n    returns (\n        string memory fileHash,\n        string memory description,\n        string memory segmentType,\n        address ownerAddress\n    )\n{\n    require(fileId > 0 && fileId <= fileIdCounter, \"Invalid fileId\");\n    for (uint256 i = 0; i < userCertificates[msg.sender].length; i++) {\n        if (userCertificates[msg.sender][i].fileId == fileId) {\n            Certificate memory certificate = userCertificates[msg.sender][i];\n            fileHash = certificate.fileHash;\n            description = certificate.description;\n            segmentType = certificate.segmentType;\n            ownerAddress = certificate.ownerAddress;\n            return (fileHash, description, segmentType, ownerAddress);\n        }\n    }\n    revert(\"File not found\");\n}\n\nfunction isRegisteredUser(address userAddress) external view returns (bool) {\n    // Check if the provided address is registered in any of the segments\n    return (\n        bytes(userInstitutions[userAddress].aicteId).length > 0 ||\n        bytes(userAgencies[userAddress].agencyId).length > 0 ||\n        bytes(userBusinesses[userAddress].businessName).length > 0\n    );\n}\n}",
  "sourcePath": "/Users/admin/git_repos/projectx/backend/contracts/mainContract.sol",
  "compiler": {
    "name": "solc",
    "version": "0.8.14+commit.80d49f37.Emscripten.clang"
  },
  "schemaVersion": "3.4.16",
  "updatedAt": "2024-02-19T04:34:40.739Z",
  "networkType": "ethereum",
  "devdoc": {
    "kind": "dev",
    "methods": {},
    "version": 1
  },
  "userdoc": {
    "kind": "user",
    "methods": {},
    "version": 1
  }
}