{
  "contractName": "CredentialSystem",
  "abi": [
    {
      "inputs": [
        {
          "components": [
            {
              "components": [
                {
                  "internalType": "uint256",
                  "name": "X",
                  "type": "uint256"
                },
                {
                  "internalType": "uint256",
                  "name": "Y",
                  "type": "uint256"
                }
              ],
              "internalType": "struct Pairing.G1Point",
              "name": "a",
              "type": "tuple"
            },
            {
              "components": [
                {
                  "internalType": "uint256[2]",
                  "name": "X",
                  "type": "uint256[2]"
                },
                {
                  "internalType": "uint256[2]",
                  "name": "Y",
                  "type": "uint256[2]"
                }
              ],
              "internalType": "struct Pairing.G2Point",
              "name": "b",
              "type": "tuple"
            },
            {
              "components": [
                {
                  "internalType": "uint256",
                  "name": "X",
                  "type": "uint256"
                },
                {
                  "internalType": "uint256",
                  "name": "Y",
                  "type": "uint256"
                }
              ],
              "internalType": "struct Pairing.G1Point",
              "name": "c",
              "type": "tuple"
            }
          ],
          "internalType": "struct Verifier.Proof",
          "name": "proof",
          "type": "tuple"
        },
        {
          "internalType": "uint256[1]",
          "name": "input",
          "type": "uint256[1]"
        }
      ],
      "name": "verifyTx",
      "outputs": [
        {
          "internalType": "bool",
          "name": "r",
          "type": "bool"
        }
      ],
      "stateMutability": "view",
      "type": "function",
      "constant": true
    },
    {
      "inputs": [
        {
          "internalType": "string",
          "name": "aicteId",
          "type": "string"
        },
        {
          "internalType": "string",
          "name": "institutionName",
          "type": "string"
        },
        {
          "internalType": "string",
          "name": "institutionRegisteredAddress",
          "type": "string"
        },
        {
          "internalType": "string",
          "name": "institutionEmail",
          "type": "string"
        },
        {
          "internalType": "bool",
          "name": "isVerified",
          "type": "bool"
        },
        {
          "internalType": "uint64",
          "name": "institutionPhone",
          "type": "uint64"
        }
      ],
      "name": "addEducationalIssuer",
      "outputs": [
        {
          "internalType": "string",
          "name": "",
          "type": "string"
        }
      ],
      "stateMutability": "payable",
      "type": "function",
      "payable": true
    },
    {
      "inputs": [
        {
          "internalType": "string",
          "name": "aicteId",
          "type": "string"
        }
      ],
      "name": "getEduInstitutionInfo",
      "outputs": [
        {
          "components": [
            {
              "internalType": "string",
              "name": "institutionName",
              "type": "string"
            },
            {
              "internalType": "string",
              "name": "institutionRegisteredAddress",
              "type": "string"
            },
            {
              "internalType": "string",
              "name": "institutionEmail",
              "type": "string"
            },
            {
              "internalType": "uint64",
              "name": "institutionPhone",
              "type": "uint64"
            },
            {
              "internalType": "address",
              "name": "institutionAdminAddress",
              "type": "address"
            }
          ],
          "internalType": "struct CredentialSystem.Institution",
          "name": "",
          "type": "tuple"
        }
      ],
      "stateMutability": "view",
      "type": "function",
      "constant": true
    },
    {
      "inputs": [
        {
          "internalType": "string",
          "name": "aicteId",
          "type": "string"
        },
        {
          "internalType": "string",
          "name": "certType",
          "type": "string"
        },
        {
          "internalType": "string",
          "name": "certName",
          "type": "string"
        },
        {
          "internalType": "string",
          "name": "certIssuanceDate",
          "type": "string"
        },
        {
          "internalType": "string",
          "name": "certUploadHash",
          "type": "string"
        },
        {
          "internalType": "string",
          "name": "recipientName",
          "type": "string"
        },
        {
          "internalType": "string",
          "name": "recipientEdUid",
          "type": "string"
        },
        {
          "internalType": "address",
          "name": "recipientAddress",
          "type": "address"
        }
      ],
      "name": "issueEduCredential",
      "outputs": [
        {
          "internalType": "string",
          "name": "",
          "type": "string"
        }
      ],
      "stateMutability": "nonpayable",
      "type": "function"
    },
    {
      "inputs": [
        {
          "internalType": "uint256",
          "name": "_number",
          "type": "uint256"
        }
      ],
      "name": "testPayment",
      "outputs": [
        {
          "internalType": "bool",
          "name": "",
          "type": "bool"
        }
      ],
      "stateMutability": "payable",
      "type": "function",
      "payable": true
    },
    {
      "inputs": [
        {
          "internalType": "string",
          "name": "_param",
          "type": "string"
        }
      ],
      "name": "returnParam",
      "outputs": [
        {
          "internalType": "string",
          "name": "",
          "type": "string"
        }
      ],
      "stateMutability": "pure",
      "type": "function",
      "constant": true
    }
  ],
  "bytecode": "0x608060405234801561001057600080fd5b50612e41806100206000396000f3fe6080604052600436106100555760003560e01c8063116fe6d91461005a5780634011a25f14610097578063749a8e0d146100c75780638c6c9159146100f7578063eaad6d3114610134578063f48d772914610171575b600080fd5b34801561006657600080fd5b50610081600480360381019061007c9190611de4565b6101ae565b60405161008e9190611f9d565b60405180910390f35b6100b160048036038101906100ac9190611ff5565b61054c565b6040516100be919061203d565b60405180910390f35b6100e160048036038101906100dc91906120b0565b6105f8565b6040516100ee91906121f7565b60405180910390f35b34801561010357600080fd5b5061011e60048036038101906101199190612245565b6109ca565b60405161012b91906121f7565b60405180910390f35b34801561014057600080fd5b5061015b60048036038101906101569190611de4565b610ce6565b60405161016891906121f7565b60405180910390f35b34801561017d57600080fd5b5061019860048036038101906101939190612630565b610cf0565b6040516101a5919061203d565b60405180910390f35b6101b6611a89565b813373ffffffffffffffffffffffffffffffffffffffff166000826040516101de91906126ae565b908152602001604051809103902060030160089054906101000a900473ffffffffffffffffffffffffffffffffffffffff1673ffffffffffffffffffffffffffffffffffffffff1614610266576040517f08c379a000000000000000000000000000000000000000000000000000000000815260040161025d90612737565b60405180910390fd5b6000808460405161027791906126ae565b90815260200160405180910390206040518060a00160405290816000820180546102a090612786565b80601f01602080910402602001604051908101604052809291908181526020018280546102cc90612786565b80156103195780601f106102ee57610100808354040283529160200191610319565b820191906000526020600020905b8154815290600101906020018083116102fc57829003601f168201915b5050505050815260200160018201805461033290612786565b80601f016020809104026020016040519081016040528092919081815260200182805461035e90612786565b80156103ab5780601f10610380576101008083540402835291602001916103ab565b820191906000526020600020905b81548152906001019060200180831161038e57829003601f168201915b505050505081526020016002820180546103c490612786565b80601f01602080910402602001604051908101604052809291908181526020018280546103f090612786565b801561043d5780601f106104125761010080835404028352916020019161043d565b820191906000526020600020905b81548152906001019060200180831161042057829003601f168201915b505050505081526020016003820160009054906101000a900467ffffffffffffffff1667ffffffffffffffff1667ffffffffffffffff1681526020016003820160089054906101000a900473ffffffffffffffffffffffffffffffffffffffff1673ffffffffffffffffffffffffffffffffffffffff1673ffffffffffffffffffffffffffffffffffffffff168152505090503373ffffffffffffffffffffffffffffffffffffffff16816080015173ffffffffffffffffffffffffffffffffffffffff1614610542576040517f08c379a000000000000000000000000000000000000000000000000000000000815260040161053990612829565b60405180910390fd5b8092505050919050565b60006509184e72a0003414610596576040517f08c379a000000000000000000000000000000000000000000000000000000000815260040161058d906128bb565b60405180910390fd5b3373ffffffffffffffffffffffffffffffffffffffff166108fc349081150290604051600060405180830381858888f193505050501580156105dc573d6000803e3d6000fd5b50600182036105ee57600190506105f3565b600090505b919050565b6060863373ffffffffffffffffffffffffffffffffffffffff1660008260405161062291906126ae565b908152602001604051809103902060030160089054906101000a900473ffffffffffffffffffffffffffffffffffffffff1673ffffffffffffffffffffffffffffffffffffffff16146106aa576040517f08c379a00000000000000000000000000000000000000000000000000000000081526004016106a190612737565b60405180910390fd5b60011515841515146106f1576040517f08c379a00000000000000000000000000000000000000000000000000000000081526004016106e89061294d565b60405180910390fd5b67016345785d8a0000341461073b576040517f08c379a000000000000000000000000000000000000000000000000000000000815260040161073290612a05565b60405180910390fd5b3373ffffffffffffffffffffffffffffffffffffffff1660008960405161076291906126ae565b908152602001604051809103902060030160089054906101000a900473ffffffffffffffffffffffffffffffffffffffff1673ffffffffffffffffffffffffffffffffffffffff16036107ea576040517f08c379a00000000000000000000000000000000000000000000000000000000081526004016107e190612a97565b60405180910390fd5b600073ffffffffffffffffffffffffffffffffffffffff1660008960405161081291906126ae565b908152602001604051809103902060030160089054906101000a900473ffffffffffffffffffffffffffffffffffffffff1673ffffffffffffffffffffffffffffffffffffffff161461089a576040517f08c379a000000000000000000000000000000000000000000000000000000000815260040161089190612b03565b60405180910390fd5b600080896040516108ab91906126ae565b90815260200160405180910390209050878160000190805190602001906108d3929190611ad8565b50868160010190805190602001906108ec929190611ad8565b5085816002019080519060200190610905929190611ad8565b50838160030160006101000a81548167ffffffffffffffff021916908367ffffffffffffffff160217905550338160030160086101000a81548173ffffffffffffffffffffffffffffffffffffffff021916908373ffffffffffffffffffffffffffffffffffffffff1602179055503373ffffffffffffffffffffffffffffffffffffffff166108fc349081150290604051600060405180830381858888f193505050501580156109ba573d6000803e3d6000fd5b5088925050509695505050505050565b6060883373ffffffffffffffffffffffffffffffffffffffff166000826040516109f491906126ae565b908152602001604051809103902060030160089054906101000a900473ffffffffffffffffffffffffffffffffffffffff1673ffffffffffffffffffffffffffffffffffffffff1614610a7c576040517f08c379a0000000000000000000000000000000000000000000000000000000008152600401610a7390612737565b60405180910390fd5b3373ffffffffffffffffffffffffffffffffffffffff1660008b604051610aa391906126ae565b908152602001604051809103902060030160089054906101000a900473ffffffffffffffffffffffffffffffffffffffff1673ffffffffffffffffffffffffffffffffffffffff1614610b2b576040517f08c379a0000000000000000000000000000000000000000000000000000000008152600401610b2290612b95565b60405180910390fd5b8273ffffffffffffffffffffffffffffffffffffffff16600385604051610b5291906126ae565b908152602001604051809103902060030160009054906101000a900473ffffffffffffffffffffffffffffffffffffffff1673ffffffffffffffffffffffffffffffffffffffff1614610bda576040517f08c379a0000000000000000000000000000000000000000000000000000000008152600401610bd190612c01565b60405180910390fd5b6000600487604051610bec91906126ae565b9081526020016040518091039020905089816000019080519060200190610c14929190611ad8565b5088816001019080519060200190610c2d929190611ad8565b5087816002019080519060200190610c46929190611ad8565b5086816003019080519060200190610c5f929190611ad8565b5085816004019080519060200190610c78929190611ad8565b5084816005019080519060200190610c91929190611ad8565b50838160060160006101000a81548173ffffffffffffffffffffffffffffffffffffffff021916908373ffffffffffffffffffffffffffffffffffffffff160217905550869250505098975050505050505050565b6060819050919050565b600080600167ffffffffffffffff811115610d0e57610d0d611cb9565b5b604051908082528060200260200182016040528015610d3c5781602001602082028036833780820191505090505b50905060005b6001811015610d9557838160018110610d5e57610d5d612c21565b5b6020020151828281518110610d7657610d75612c21565b5b6020026020010181815250508080610d8d90612c7f565b915050610d42565b506000610da28286610dbd565b03610db1576001915050610db7565b60009150505b92915050565b6000807f30644e72e131a029b85045b68181585d2833e84879b9709143e1f593f000000190506000610ded610f54565b905080608001515160018651610e039190612cc7565b14610e0d57600080fd5b60006040518060400160405280600081526020016000815250905060005b8651811015610ec65783878281518110610e4857610e47612c21565b5b602002602001015110610e5a57600080fd5b610eb182610eac8560800151600185610e739190612cc7565b81518110610e8457610e83612c21565b5b60200260200101518a8581518110610e9f57610e9e612c21565b5b6020026020010151611357565b6113f9565b91508080610ebe90612c7f565b915050610e2b565b50610ef0818360800151600081518110610ee357610ee2612c21565b5b60200260200101516113f9565b9050610f3685600001518660200151610f08846114c1565b8560400151610f1a8a604001516114c1565b8760600151610f2c89600001516114c1565b8960200151611566565b610f465760019350505050610f4e565b600093505050505b92915050565b610f5c611b5e565b60405180604001604052807f02fbb313650840ccadab3734ed6d88e854574c3cf3e84d51df3ca5c7bcdc3e2181526020017f02887bf693a4c7db8c7dad5eafbe31b53b6105f64c09d5fb199fbd668154bdaf8152508160000181905250604051806040016040528060405180604001604052807f03bebf4a1afc762c3ffbfca1d364b639a8588bb0abf2d96fb7be11003bc2aeff81526020017f1d6c860131e2521fcf1bf9df653d546b3e6c4ec591e8ba16752c84f3fed15f9a815250815260200160405180604001604052807f02b23210583cbc1ef97f1b94d37bc4ad11306ee682aa7c1445cd12e2be24d44c81526020017f1e6c9c9213f8cf5057999e6a47697ecc748aaeda1929125865773fb47096df828152508152508160200181905250604051806040016040528060405180604001604052807f1b680d3139f96c6bc969d463cda651e3e8426a03fa1b465589e7e690f25dc7fa81526020017f149f3052bcf967782d1b60185f20ed4079d99e71370afb6dd312fd69646387d8815250815260200160405180604001604052807f166e1666c39d228ce793833d21c02ba3af69d15f7e8fe23d789844f1e783045d81526020017f2ef98e6fa80633211b13542e7f5f27925831b0e8a8478bcfdb29657857e9820c8152508152508160400181905250604051806040016040528060405180604001604052807e22ded1971837e449ff61fae3b44a89105133d75b978bbfbb0a662ada64ffc181526020017f113e0befe71c0a14c7e6eae3d79b1a06834342c371179638b313ba4f7735aa9f815250815260200160405180604001604052807f1dd54cd45222c57dfef21b59a79775dcaed3b49154f5003ec5aa6dfcf8e3840281526020017f171ba0b7633cfd35f17c26b10546453a3ed5edf9e89abedf5bd36b63bf2335fa8152508152508160600181905250600267ffffffffffffffff81111561122257611221611cb9565b5b60405190808252806020026020018201604052801561125b57816020015b611248611ba5565b8152602001906001900390816112405790505b50816080018190525060405180604001604052807f0a1cee17cb0b962a2b2bbc9127c221f722991820b1512ea8de175361e9ad233c81526020017f1fde7cbe6a0c7ac8c25607d547039295be94f4d081d90f4d4b3c0eeff14f0bee81525081608001516000815181106112d1576112d0612c21565b5b602002602001018190525060405180604001604052807f01300e4dbe7ed01b409fda0b0a41e2e64bb6d689cdb8e7919d3e4cea77a493fd81526020017f1b9010d0582a7a7b87a4b74c4881ebd03d4546572f6b8e1034bb36f3cb24b35d815250816080015160018151811061134957611348612c21565b5b602002602001018190525090565b61135f611ba5565b611367611bbf565b8360000151816000600381106113805761137f612c21565b5b6020020181815250508360200151816001600381106113a2576113a1612c21565b5b60200201818152505082816002600381106113c0576113bf612c21565b5b602002018181525050600060608360808460076107d05a03fa905080600081036113e657fe5b50806113f157600080fd5b505092915050565b611401611ba5565b611409611be1565b83600001518160006004811061142257611421612c21565b5b60200201818152505083602001518160016004811061144457611443612c21565b5b60200201818152505082600001518160026004811061146657611465612c21565b5b60200201818152505082602001518160036004811061148857611487612c21565b5b602002018181525050600060608360c08460066107d05a03fa905080600081036114ae57fe5b50806114b957600080fd5b505092915050565b6114c9611ba5565b60007f30644e72e131a029b85045b68181585d97816a916871ca8d3c208c16d87cfd47905060008360000151148015611506575060008360200151145b1561152a576040518060400160405280600081526020016000815250915050611561565b60405180604001604052808460000151815260200182856020015161154f9190612d4c565b8361155a9190612d7d565b8152509150505b919050565b600080600467ffffffffffffffff81111561158457611583611cb9565b5b6040519080825280602002602001820160405280156115bd57816020015b6115aa611ba5565b8152602001906001900390816115a25790505b5090506000600467ffffffffffffffff8111156115dd576115dc611cb9565b5b60405190808252806020026020018201604052801561161657816020015b611603611c03565b8152602001906001900390816115fb5790505b5090508a8260008151811061162e5761162d612c21565b5b6020026020010181905250888260018151811061164e5761164d612c21565b5b6020026020010181905250868260028151811061166e5761166d612c21565b5b6020026020010181905250848260038151811061168e5761168d612c21565b5b602002602001018190525089816000815181106116ae576116ad612c21565b5b602002602001018190525087816001815181106116ce576116cd612c21565b5b602002602001018190525085816002815181106116ee576116ed612c21565b5b6020026020010181905250838160038151811061170e5761170d612c21565b5b60200260200101819052506117238282611733565b9250505098975050505050505050565b6000815183511461174357600080fd5b60008351905060006006826117589190612db1565b905060008167ffffffffffffffff81111561177657611775611cb9565b5b6040519080825280602002602001820160405280156117a45781602001602082028036833780820191505090505b50905060005b83811015611a29578681815181106117c5576117c4612c21565b5b6020026020010151600001518260006006846117e19190612db1565b6117eb9190612cc7565b815181106117fc576117fb612c21565b5b60200260200101818152505086818151811061181b5761181a612c21565b5b6020026020010151602001518260016006846118379190612db1565b6118419190612cc7565b8151811061185257611851612c21565b5b60200260200101818152505085818151811061187157611870612c21565b5b6020026020010151600001516001600281106118905761188f612c21565b5b60200201518260026006846118a59190612db1565b6118af9190612cc7565b815181106118c0576118bf612c21565b5b6020026020010181815250508581815181106118df576118de612c21565b5b6020026020010151600001516000600281106118fe576118fd612c21565b5b60200201518260036006846119139190612db1565b61191d9190612cc7565b8151811061192e5761192d612c21565b5b60200260200101818152505085818151811061194d5761194c612c21565b5b60200260200101516020015160016002811061196c5761196b612c21565b5b60200201518260046006846119819190612db1565b61198b9190612cc7565b8151811061199c5761199b612c21565b5b6020026020010181815250508581815181106119bb576119ba612c21565b5b6020026020010151602001516000600281106119da576119d9612c21565b5b60200201518260056006846119ef9190612db1565b6119f99190612cc7565b81518110611a0a57611a09612c21565b5b6020026020010181815250508080611a2190612c7f565b9150506117aa565b50611a32611c29565b6000602082602086026020860160086107d05a03fa90508060008103611a5457fe5b5080611a5f57600080fd5b600082600060018110611a7557611a74612c21565b5b602002015114159550505050505092915050565b6040518060a00160405280606081526020016060815260200160608152602001600067ffffffffffffffff168152602001600073ffffffffffffffffffffffffffffffffffffffff1681525090565b828054611ae490612786565b90600052602060002090601f016020900481019282611b065760008555611b4d565b82601f10611b1f57805160ff1916838001178555611b4d565b82800160010185558215611b4d579182015b82811115611b4c578251825591602001919060010190611b31565b5b509050611b5a9190611c4b565b5090565b6040518060a00160405280611b71611ba5565b8152602001611b7e611c03565b8152602001611b8b611c03565b8152602001611b98611c03565b8152602001606081525090565b604051806040016040528060008152602001600081525090565b6040518060600160405280600390602082028036833780820191505090505090565b6040518060800160405280600490602082028036833780820191505090505090565b6040518060400160405280611c16611c68565b8152602001611c23611c68565b81525090565b6040518060200160405280600190602082028036833780820191505090505090565b5b80821115611c64576000816000905550600101611c4c565b5090565b6040518060400160405280600290602082028036833780820191505090505090565b6000604051905090565b600080fd5b600080fd5b600080fd5b600080fd5b6000601f19601f8301169050919050565b7f4e487b7100000000000000000000000000000000000000000000000000000000600052604160045260246000fd5b611cf182611ca8565b810181811067ffffffffffffffff82111715611d1057611d0f611cb9565b5b80604052505050565b6000611d23611c8a565b9050611d2f8282611ce8565b919050565b600067ffffffffffffffff821115611d4f57611d4e611cb9565b5b611d5882611ca8565b9050602081019050919050565b82818337600083830152505050565b6000611d87611d8284611d34565b611d19565b905082815260208101848484011115611da357611da2611ca3565b5b611dae848285611d65565b509392505050565b600082601f830112611dcb57611dca611c9e565b5b8135611ddb848260208601611d74565b91505092915050565b600060208284031215611dfa57611df9611c94565b5b600082013567ffffffffffffffff811115611e1857611e17611c99565b5b611e2484828501611db6565b91505092915050565b600081519050919050565b600082825260208201905092915050565b60005b83811015611e67578082015181840152602081019050611e4c565b83811115611e76576000848401525b50505050565b6000611e8782611e2d565b611e918185611e38565b9350611ea1818560208601611e49565b611eaa81611ca8565b840191505092915050565b600067ffffffffffffffff82169050919050565b611ed281611eb5565b82525050565b600073ffffffffffffffffffffffffffffffffffffffff82169050919050565b6000611f0382611ed8565b9050919050565b611f1381611ef8565b82525050565b600060a0830160008301518482036000860152611f368282611e7c565b91505060208301518482036020860152611f508282611e7c565b91505060408301518482036040860152611f6a8282611e7c565b9150506060830151611f7f6060860182611ec9565b506080830151611f926080860182611f0a565b508091505092915050565b60006020820190508181036000830152611fb78184611f19565b905092915050565b6000819050919050565b611fd281611fbf565b8114611fdd57600080fd5b50565b600081359050611fef81611fc9565b92915050565b60006020828403121561200b5761200a611c94565b5b600061201984828501611fe0565b91505092915050565b60008115159050919050565b61203781612022565b82525050565b6000602082019050612052600083018461202e565b92915050565b61206181612022565b811461206c57600080fd5b50565b60008135905061207e81612058565b92915050565b61208d81611eb5565b811461209857600080fd5b50565b6000813590506120aa81612084565b92915050565b60008060008060008060c087890312156120cd576120cc611c94565b5b600087013567ffffffffffffffff8111156120eb576120ea611c99565b5b6120f789828a01611db6565b965050602087013567ffffffffffffffff81111561211857612117611c99565b5b61212489828a01611db6565b955050604087013567ffffffffffffffff81111561214557612144611c99565b5b61215189828a01611db6565b945050606087013567ffffffffffffffff81111561217257612171611c99565b5b61217e89828a01611db6565b935050608061218f89828a0161206f565b92505060a06121a089828a0161209b565b9150509295509295509295565b600082825260208201905092915050565b60006121c982611e2d565b6121d381856121ad565b93506121e3818560208601611e49565b6121ec81611ca8565b840191505092915050565b6000602082019050818103600083015261221181846121be565b905092915050565b61222281611ef8565b811461222d57600080fd5b50565b60008135905061223f81612219565b92915050565b600080600080600080600080610100898b03121561226657612265611c94565b5b600089013567ffffffffffffffff81111561228457612283611c99565b5b6122908b828c01611db6565b985050602089013567ffffffffffffffff8111156122b1576122b0611c99565b5b6122bd8b828c01611db6565b975050604089013567ffffffffffffffff8111156122de576122dd611c99565b5b6122ea8b828c01611db6565b965050606089013567ffffffffffffffff81111561230b5761230a611c99565b5b6123178b828c01611db6565b955050608089013567ffffffffffffffff81111561233857612337611c99565b5b6123448b828c01611db6565b94505060a089013567ffffffffffffffff81111561236557612364611c99565b5b6123718b828c01611db6565b93505060c089013567ffffffffffffffff81111561239257612391611c99565b5b61239e8b828c01611db6565b92505060e06123af8b828c01612230565b9150509295985092959890939650565b600080fd5b6000604082840312156123da576123d96123bf565b5b6123e46040611d19565b905060006123f484828501611fe0565b600083015250602061240884828501611fe0565b60208301525092915050565b600067ffffffffffffffff82111561242f5761242e611cb9565b5b602082029050919050565b600080fd5b600061245261244d84612414565b611d19565b9050806020840283018581111561246c5761246b61243a565b5b835b8181101561249557806124818882611fe0565b84526020840193505060208101905061246e565b5050509392505050565b600082601f8301126124b4576124b3611c9e565b5b60026124c184828561243f565b91505092915050565b6000608082840312156124e0576124df6123bf565b5b6124ea6040611d19565b905060006124fa8482850161249f565b600083015250604061250e8482850161249f565b60208301525092915050565b60006101008284031215612531576125306123bf565b5b61253b6060611d19565b9050600061254b848285016123c4565b600083015250604061255f848285016124ca565b60208301525060c0612573848285016123c4565b60408301525092915050565b600067ffffffffffffffff82111561259a57612599611cb9565b5b602082029050919050565b60006125b86125b38461257f565b611d19565b905080602084028301858111156125d2576125d161243a565b5b835b818110156125fb57806125e78882611fe0565b8452602084019350506020810190506125d4565b5050509392505050565b600082601f83011261261a57612619611c9e565b5b60016126278482856125a5565b91505092915050565b600080610120838503121561264857612647611c94565b5b60006126568582860161251a565b92505061010061266885828601612605565b9150509250929050565b600081905092915050565b600061268882611e2d565b6126928185612672565b93506126a2818560208601611e49565b80840191505092915050565b60006126ba828461267d565b915081905092915050565b7f4f6e6c7920696e737469747574696f6e2061646d696e2063616e20706572666f60008201527f726d207468697320616374696f6e000000000000000000000000000000000000602082015250565b6000612721602e836121ad565b915061272c826126c5565b604082019050919050565b6000602082019050818103600083015261275081612714565b9050919050565b7f4e487b7100000000000000000000000000000000000000000000000000000000600052602260045260246000fd5b6000600282049050600182168061279e57607f821691505b6020821081036127b1576127b0612757565b5b50919050565b7f43616c6c6572206973206e6f74207468652061646d696e206f6620746869732060008201527f696e737469747574696f6e000000000000000000000000000000000000000000602082015250565b6000612813602b836121ad565b915061281e826127b7565b604082019050919050565b6000602082019050818103600083015261284281612806565b9050919050565b7f506c656173652070617920616e20757066726f6e7420616d6f756e74206f662060008201527f302e312065746865720000000000000000000000000000000000000000000000602082015250565b60006128a56029836121ad565b91506128b082612849565b604082019050919050565b600060208201905081810360008301526128d481612898565b9050919050565b7f456d61696c20766572696669636174696f6e20726571756972656420746f206360008201527f6f6e6669726d20696e737469747574696f6e20726567697374726174696f6e00602082015250565b6000612937603f836121ad565b9150612942826128db565b604082019050919050565b600060208201905081810360008301526129668161292a565b9050919050565b7f506c656173652070617920616e20757066726f6e7420616d6f756e74206f662060008201527f302e3120657468657220746f20726567697374657220796f757220696e73746960208201527f747574696f6e0000000000000000000000000000000000000000000000000000604082015250565b60006129ef6046836121ad565b91506129fa8261296d565b606082019050919050565b60006020820190508181036000830152612a1e816129e2565b9050919050565b7f43616c6c657220697320616c7265616479207468652061646d696e206f66206160008201527f6e6f7468657220696e737469747574696f6e0000000000000000000000000000602082015250565b6000612a816032836121ad565b9150612a8c82612a25565b604082019050919050565b60006020820190508181036000830152612ab081612a74565b9050919050565b7f496e737469747574696f6e20616c726561647920657869737473000000000000600082015250565b6000612aed601a836121ad565b9150612af882612ab7565b602082019050919050565b60006020820190508181036000830152612b1c81612ae0565b9050919050565b7f4f6e6c7920696e737469747574696f6e2061646d696e2063616e20697373756560008201527f2063726564656e7469616c730000000000000000000000000000000000000000602082015250565b6000612b7f602c836121ad565b9150612b8a82612b23565b604082019050919050565b60006020820190508181036000830152612bae81612b72565b9050919050565b7f526563697069656e74206e6f7420666f756e6400000000000000000000000000600082015250565b6000612beb6013836121ad565b9150612bf682612bb5565b602082019050919050565b60006020820190508181036000830152612c1a81612bde565b9050919050565b7f4e487b7100000000000000000000000000000000000000000000000000000000600052603260045260246000fd5b7f4e487b7100000000000000000000000000000000000000000000000000000000600052601160045260246000fd5b6000612c8a82611fbf565b91507fffffffffffffffffffffffffffffffffffffffffffffffffffffffffffffffff8203612cbc57612cbb612c50565b5b600182019050919050565b6000612cd282611fbf565b9150612cdd83611fbf565b9250827fffffffffffffffffffffffffffffffffffffffffffffffffffffffffffffffff03821115612d1257612d11612c50565b5b828201905092915050565b7f4e487b7100000000000000000000000000000000000000000000000000000000600052601260045260246000fd5b6000612d5782611fbf565b9150612d6283611fbf565b925082612d7257612d71612d1d565b5b828206905092915050565b6000612d8882611fbf565b9150612d9383611fbf565b925082821015612da657612da5612c50565b5b828203905092915050565b6000612dbc82611fbf565b9150612dc783611fbf565b9250817fffffffffffffffffffffffffffffffffffffffffffffffffffffffffffffffff0483118215151615612e0057612dff612c50565b5b82820290509291505056fea2646970667358221220825b00b853c53687a7b76a8b2fbfc0ee14346bbd1e470c2f3516330461f0870164736f6c634300080e0033",
  "immutableReferences": {},
  "source": "// SPDX-License-Identifier: MIT\npragma solidity ^0.8.0;\nimport './verifier.sol';\n\ncontract CredentialSystem is Verifier{\n    \n    struct Institution {\n        string institutionName;\n        string institutionRegisteredAddress;\n        string institutionEmail;\n        uint64 institutionPhone;\n        address institutionAdminAddress;\n    }\n    \n    struct Company {\n        string companyName;\n        string companyRegistrationNumber;\n        string companyRegistrationCertHash;\n        string companyEmail;\n        uint64 companyPhone;\n        string companyRegisteredAddress;\n        address companyAdminAddress;\n    }\n    \n    struct Event {\n        string eventName;\n        string eventOrganizer;\n        string[] eventSponsors;\n        string organizerRegistrationNumber;\n        string organizerRegistrationCertHash;\n        string organizerRegisteredAddress;\n        uint64 organizerPhone;\n        address organizerAdminAddress;\n    }\n    \n    struct Recipient {\n        string recipientName;\n        string recipientEmail;\n        string recipientPhone;\n        address recipientAddress;\n    }\n    \n    struct Credential {\n        string certType;\n        string certName;\n        string certIssuanceDate;\n        string certUploadHash;\n        string recipientName;\n        string recipientEdUid;\n        address recipientAddress;\n    }\n    \n    mapping(string => Institution) institutions;\n    mapping(string => Company) companies;\n    mapping(string => Event) events;\n    mapping(string => Recipient) recipients;\n    mapping(string => Credential) credentials;\n    mapping(string => string) sharedDocuments;\n    mapping(string => string) accessTokens;\n    \n    // Modifiers\n    modifier onlyInstitutionAdmin(string memory _institutionId) {\n        require(institutions[_institutionId].institutionAdminAddress == msg.sender, \"Only institution admin can perform this action\");\n        _;\n    }\n\n    modifier onlyInstitution(string memory _institutionId) {\n        require(institutions[_institutionId].institutionAdminAddress == msg.sender, \"Only institution admin can perform this action\");\n        _;\n    }\n    \n    modifier onlyCompanyAdmin(string memory _companyId) {\n        require(companies[_companyId].companyAdminAddress == msg.sender, \"Only company admin can perform this action\");\n        _;\n    }\n    \n    modifier onlyEventOrganizer(string memory _eventId) {\n        require(events[_eventId].organizerAdminAddress == msg.sender, \"Only event organizer can perform this action\");\n        _;\n    }\n    \n    modifier onlyRecipient(string memory _recipientId) {\n        require(recipients[_recipientId].recipientAddress == msg.sender, \"Only recipient can perform this action\");\n        _;\n    }\n    \n    function addEducationalIssuer(\n        string memory aicteId,\n        string memory institutionName, \n        string memory institutionRegisteredAddress, \n        string memory institutionEmail,\n        bool isVerified,\n        uint64 institutionPhone\n    ) public onlyInstitutionAdmin(aicteId) payable returns (string memory) {\n        require(isVerified == true, \"Email verification required to confirm institution registration\");\n        require(msg.value == 0.1 ether, \"Please pay an upfront amount of 0.1 ether to register your institution\");\n\n        // Check if the admin address already exists as the admin of another institution\n        require(institutions[aicteId].institutionAdminAddress != msg.sender, \"Caller is already the admin of another institution\");\n\n        // Check if the institution already exists for the given aicteId\n        require(institutions[aicteId].institutionAdminAddress == address(0), \"Institution already exists\");\n\n        // Create a new institution entry\n        Institution storage newInstitution = institutions[aicteId];\n        newInstitution.institutionName = institutionName;\n        newInstitution.institutionRegisteredAddress = institutionRegisteredAddress;\n        newInstitution.institutionEmail = institutionEmail;\n        newInstitution.institutionPhone = institutionPhone;\n        newInstitution.institutionAdminAddress = msg.sender;\n\n        // Refund the initial 0.1 ETH back to the msg.sender (adminAddress)\n        payable(msg.sender).transfer(msg.value);\n\n        return aicteId;\n    }\n\n    function getEduInstitutionInfo(\n    string memory aicteId\n    ) public onlyInstitutionAdmin(aicteId) view returns (Institution memory) {\n    Institution memory institution = institutions[aicteId];\n    require(institution.institutionAdminAddress == msg.sender, \"Caller is not the admin of this institution\");\n    return institution;\n    }\n\n    function issueEduCredential(\n        string memory aicteId,\n        string memory certType,\n        string memory certName,\n        string memory certIssuanceDate,\n        string memory certUploadHash,\n        string memory recipientName,\n        string memory recipientEdUid,\n        address recipientAddress\n    ) public onlyInstitutionAdmin(aicteId) returns (string memory) {\n        require(institutions[aicteId].institutionAdminAddress == msg.sender, \"Only institution admin can issue credentials\");\n        require(recipients[recipientEdUid].recipientAddress == recipientAddress, \"Recipient not found\");\n        \n        // Create a new credential entry\n        Credential storage newCredential = credentials[certUploadHash];\n        newCredential.certType = certType;\n        newCredential.certName = certName;\n        newCredential.certIssuanceDate = certIssuanceDate;\n        newCredential.certUploadHash = certUploadHash;\n        newCredential.recipientName = recipientName;\n        newCredential.recipientEdUid = recipientEdUid;\n        newCredential.recipientAddress = recipientAddress;\n        \n        return certUploadHash;\n    }\n\n    function testPayment(uint _number) public payable returns (bool) {\n        require(msg.value == 0.00001 ether, \"Please pay an upfront amount of 0.1 ether\");\n        payable(msg.sender).transfer(msg.value);\n        if(_number == 1) {\n            return true;\n        } else {\n            return false;\n        }\n    }\n\n    function returnParam(string memory _param) public pure returns (string memory) {\n        return _param;\n    }\n}",
  "sourcePath": "/Users/admin/git_repos/projectx/backend/contracts/credentialManager.sol",
  "compiler": {
    "name": "solc",
    "version": "0.8.14+commit.80d49f37.Emscripten.clang"
  },
  "schemaVersion": "3.4.16",
  "updatedAt": "2024-02-23T18:16:02.918Z",
  "networkType": "ethereum",
  "devdoc": {
    "kind": "dev",
    "methods": {},
    "version": 1
  },
  "userdoc": {
    "kind": "user",
    "methods": {},
    "version": 1
  }
}