{
  "contractName": "CredentialSystem",
  "abi": [
    {
      "inputs": [
        {
          "internalType": "string",
          "name": "aicteId",
          "type": "string"
        },
        {
          "internalType": "string",
          "name": "institutionName",
          "type": "string"
        },
        {
          "internalType": "string",
          "name": "institutionRegisteredAddress",
          "type": "string"
        },
        {
          "internalType": "string",
          "name": "institutionEmail",
          "type": "string"
        },
        {
          "internalType": "bool",
          "name": "isVerified",
          "type": "bool"
        },
        {
          "internalType": "uint64",
          "name": "institutionPhone",
          "type": "uint64"
        }
      ],
      "name": "addEducationalIssuer",
      "outputs": [
        {
          "internalType": "string",
          "name": "",
          "type": "string"
        }
      ],
      "stateMutability": "nonpayable",
      "type": "function"
    },
    {
      "inputs": [
        {
          "internalType": "string",
          "name": "companyName",
          "type": "string"
        },
        {
          "internalType": "string",
          "name": "companyRegistrationNumber",
          "type": "string"
        },
        {
          "internalType": "string",
          "name": "companyRegistrationCertHash",
          "type": "string"
        },
        {
          "internalType": "string",
          "name": "companyEmail",
          "type": "string"
        },
        {
          "internalType": "uint64",
          "name": "companyPhone",
          "type": "uint64"
        },
        {
          "internalType": "string",
          "name": "companyRegisteredAddress",
          "type": "string"
        },
        {
          "internalType": "bool",
          "name": "isVerified",
          "type": "bool"
        }
      ],
      "name": "addCompanyIssuer",
      "outputs": [],
      "stateMutability": "nonpayable",
      "type": "function"
    },
    {
      "inputs": [
        {
          "internalType": "string",
          "name": "eventName",
          "type": "string"
        },
        {
          "internalType": "string",
          "name": "eventOrganizer",
          "type": "string"
        },
        {
          "internalType": "string[]",
          "name": "eventSponsors",
          "type": "string[]"
        },
        {
          "internalType": "string",
          "name": "organizerRegistrationNumber",
          "type": "string"
        },
        {
          "internalType": "string",
          "name": "organizerRegistrationCertHash",
          "type": "string"
        },
        {
          "internalType": "string",
          "name": "organizerRegisteredAddress",
          "type": "string"
        },
        {
          "internalType": "uint64",
          "name": "organizerPhone",
          "type": "uint64"
        },
        {
          "internalType": "address",
          "name": "organizerAdminAddress",
          "type": "address"
        }
      ],
      "name": "addEventIssuer",
      "outputs": [],
      "stateMutability": "nonpayable",
      "type": "function"
    },
    {
      "inputs": [
        {
          "internalType": "string",
          "name": "recipientName",
          "type": "string"
        },
        {
          "internalType": "string",
          "name": "recipientEmail",
          "type": "string"
        },
        {
          "internalType": "string",
          "name": "recipientPhone",
          "type": "string"
        },
        {
          "internalType": "address",
          "name": "recipientAddress",
          "type": "address"
        }
      ],
      "name": "addRecipient",
      "outputs": [],
      "stateMutability": "nonpayable",
      "type": "function"
    }
  ],
  "bytecode": "0x608060405234801561001057600080fd5b506114c0806100206000396000f3fe608060405234801561001057600080fd5b506004361061004c5760003560e01c80632253e95914610051578063385fb9ac1461006d5780635a0f896d14610089578063749a8e0d146100a5575b600080fd5b61006b60048036038101906100669190610bdd565b6100d5565b005b61008760048036038101906100829190610d3b565b610299565b005b6100a3600480360381019061009e9190610e2e565b6103e3565b005b6100bf60048036038101906100ba9190610f5c565b6105d4565b6040516100cc91906110e1565b60405180910390f35b60006002896040516100e7919061113f565b90815260200160405180910390209050600073ffffffffffffffffffffffffffffffffffffffff168160060160089054906101000a900473ffffffffffffffffffffffffffffffffffffffff1673ffffffffffffffffffffffffffffffffffffffff161461018a576040517f08c379a0000000000000000000000000000000000000000000000000000000008152600401610181906111a2565b60405180910390fd5b888160000190805190602001906101a2929190610798565b50878160010190805190602001906101bb929190610798565b50868160020190805190602001906101d492919061081e565b50858160030190805190602001906101ed929190610798565b5084816004019080519060200190610206929190610798565b508381600501908051906020019061021f929190610798565b50828160060160006101000a81548167ffffffffffffffff021916908367ffffffffffffffff160217905550818160060160086101000a81548173ffffffffffffffffffffffffffffffffffffffff021916908373ffffffffffffffffffffffffffffffffffffffff160217905550505050505050505050565b60006003856040516102ab919061113f565b90815260200160405180910390209050600073ffffffffffffffffffffffffffffffffffffffff168160030160009054906101000a900473ffffffffffffffffffffffffffffffffffffffff1673ffffffffffffffffffffffffffffffffffffffff161461034e576040517f08c379a00000000000000000000000000000000000000000000000000000000081526004016103459061120e565b60405180910390fd5b84816000019080519060200190610366929190610798565b508381600101908051906020019061037f929190610798565b5082816002019080519060200190610398929190610798565b50818160030160006101000a81548173ffffffffffffffffffffffffffffffffffffffff021916908373ffffffffffffffffffffffffffffffffffffffff1602179055505050505050565b600115158115151461042a576040517f08c379a0000000000000000000000000000000000000000000000000000000008152600401610421906112a0565b60405180910390fd5b600060018860405161043c919061113f565b90815260200160405180910390209050600073ffffffffffffffffffffffffffffffffffffffff168160060160009054906101000a900473ffffffffffffffffffffffffffffffffffffffff1673ffffffffffffffffffffffffffffffffffffffff16146104df576040517f08c379a00000000000000000000000000000000000000000000000000000000081526004016104d69061130c565b60405180910390fd5b878160000190805190602001906104f7929190610798565b5086816001019080519060200190610510929190610798565b5085816002019080519060200190610529929190610798565b5084816003019080519060200190610542929190610798565b50838160040160006101000a81548167ffffffffffffffff021916908367ffffffffffffffff16021790555082816005019080519060200190610586929190610798565b50338160060160006101000a81548173ffffffffffffffffffffffffffffffffffffffff021916908373ffffffffffffffffffffffffffffffffffffffff1602179055505050505050505050565b6060600115158315151461061d576040517f08c379a00000000000000000000000000000000000000000000000000000000081526004016106149061139e565b60405180910390fd5b6000808860405161062e919061113f565b90815260200160405180910390209050600073ffffffffffffffffffffffffffffffffffffffff168160030160089054906101000a900473ffffffffffffffffffffffffffffffffffffffff1673ffffffffffffffffffffffffffffffffffffffff16146106d1576040517f08c379a00000000000000000000000000000000000000000000000000000000081526004016106c89061140a565b60405180910390fd5b868160000190805190602001906106e9929190610798565b5085816001019080519060200190610702929190610798565b508481600201908051906020019061071b929190610798565b50828160030160006101000a81548167ffffffffffffffff021916908367ffffffffffffffff160217905550338160030160086101000a81548173ffffffffffffffffffffffffffffffffffffffff021916908373ffffffffffffffffffffffffffffffffffffffff160217905550879150509695505050505050565b8280546107a490611459565b90600052602060002090601f0160209004810192826107c6576000855561080d565b82601f106107df57805160ff191683800117855561080d565b8280016001018555821561080d579182015b8281111561080c5782518255916020019190600101906107f1565b5b50905061081a919061087e565b5090565b82805482825590600052602060002090810192821561086d579160200282015b8281111561086c57825182908051906020019061085c929190610798565b509160200191906001019061083e565b5b50905061087a919061089b565b5090565b5b8082111561089757600081600090555060010161087f565b5090565b5b808211156108bb57600081816108b291906108bf565b5060010161089c565b5090565b5080546108cb90611459565b6000825580601f106108dd57506108fc565b601f0160209004906000526020600020908101906108fb919061087e565b5b50565b6000604051905090565b600080fd5b600080fd5b600080fd5b600080fd5b6000601f19601f8301169050919050565b7f4e487b7100000000000000000000000000000000000000000000000000000000600052604160045260246000fd5b6109668261091d565b810181811067ffffffffffffffff821117156109855761098461092e565b5b80604052505050565b60006109986108ff565b90506109a4828261095d565b919050565b600067ffffffffffffffff8211156109c4576109c361092e565b5b6109cd8261091d565b9050602081019050919050565b82818337600083830152505050565b60006109fc6109f7846109a9565b61098e565b905082815260208101848484011115610a1857610a17610918565b5b610a238482856109da565b509392505050565b600082601f830112610a4057610a3f610913565b5b8135610a508482602086016109e9565b91505092915050565b600067ffffffffffffffff821115610a7457610a7361092e565b5b602082029050602081019050919050565b600080fd5b6000610a9d610a9884610a59565b61098e565b90508083825260208201905060208402830185811115610ac057610abf610a85565b5b835b81811015610b0757803567ffffffffffffffff811115610ae557610ae4610913565b5b808601610af28982610a2b565b85526020850194505050602081019050610ac2565b5050509392505050565b600082601f830112610b2657610b25610913565b5b8135610b36848260208601610a8a565b91505092915050565b600067ffffffffffffffff82169050919050565b610b5c81610b3f565b8114610b6757600080fd5b50565b600081359050610b7981610b53565b92915050565b600073ffffffffffffffffffffffffffffffffffffffff82169050919050565b6000610baa82610b7f565b9050919050565b610bba81610b9f565b8114610bc557600080fd5b50565b600081359050610bd781610bb1565b92915050565b600080600080600080600080610100898b031215610bfe57610bfd610909565b5b600089013567ffffffffffffffff811115610c1c57610c1b61090e565b5b610c288b828c01610a2b565b985050602089013567ffffffffffffffff811115610c4957610c4861090e565b5b610c558b828c01610a2b565b975050604089013567ffffffffffffffff811115610c7657610c7561090e565b5b610c828b828c01610b11565b965050606089013567ffffffffffffffff811115610ca357610ca261090e565b5b610caf8b828c01610a2b565b955050608089013567ffffffffffffffff811115610cd057610ccf61090e565b5b610cdc8b828c01610a2b565b94505060a089013567ffffffffffffffff811115610cfd57610cfc61090e565b5b610d098b828c01610a2b565b93505060c0610d1a8b828c01610b6a565b92505060e0610d2b8b828c01610bc8565b9150509295985092959890939650565b60008060008060808587031215610d5557610d54610909565b5b600085013567ffffffffffffffff811115610d7357610d7261090e565b5b610d7f87828801610a2b565b945050602085013567ffffffffffffffff811115610da057610d9f61090e565b5b610dac87828801610a2b565b935050604085013567ffffffffffffffff811115610dcd57610dcc61090e565b5b610dd987828801610a2b565b9250506060610dea87828801610bc8565b91505092959194509250565b60008115159050919050565b610e0b81610df6565b8114610e1657600080fd5b50565b600081359050610e2881610e02565b92915050565b600080600080600080600060e0888a031215610e4d57610e4c610909565b5b600088013567ffffffffffffffff811115610e6b57610e6a61090e565b5b610e778a828b01610a2b565b975050602088013567ffffffffffffffff811115610e9857610e9761090e565b5b610ea48a828b01610a2b565b965050604088013567ffffffffffffffff811115610ec557610ec461090e565b5b610ed18a828b01610a2b565b955050606088013567ffffffffffffffff811115610ef257610ef161090e565b5b610efe8a828b01610a2b565b9450506080610f0f8a828b01610b6a565b93505060a088013567ffffffffffffffff811115610f3057610f2f61090e565b5b610f3c8a828b01610a2b565b92505060c0610f4d8a828b01610e19565b91505092959891949750929550565b60008060008060008060c08789031215610f7957610f78610909565b5b600087013567ffffffffffffffff811115610f9757610f9661090e565b5b610fa389828a01610a2b565b965050602087013567ffffffffffffffff811115610fc457610fc361090e565b5b610fd089828a01610a2b565b955050604087013567ffffffffffffffff811115610ff157610ff061090e565b5b610ffd89828a01610a2b565b945050606087013567ffffffffffffffff81111561101e5761101d61090e565b5b61102a89828a01610a2b565b935050608061103b89828a01610e19565b92505060a061104c89828a01610b6a565b9150509295509295509295565b600081519050919050565b600082825260208201905092915050565b60005b83811015611093578082015181840152602081019050611078565b838111156110a2576000848401525b50505050565b60006110b382611059565b6110bd8185611064565b93506110cd818560208601611075565b6110d68161091d565b840191505092915050565b600060208201905081810360008301526110fb81846110a8565b905092915050565b600081905092915050565b600061111982611059565b6111238185611103565b9350611133818560208601611075565b80840191505092915050565b600061114b828461110e565b915081905092915050565b7f4576656e7420616c726561647920657869737473000000000000000000000000600082015250565b600061118c601483611064565b915061119782611156565b602082019050919050565b600060208201905081810360008301526111bb8161117f565b9050919050565b7f526563697069656e7420616c7265616479206578697374730000000000000000600082015250565b60006111f8601883611064565b9150611203826111c2565b602082019050919050565b60006020820190508181036000830152611227816111eb565b9050919050565b7f456d61696c20766572696669636174696f6e20726571756972656420746f206360008201527f6f6e6669726d20636f6d70616e7920726567697374726174696f6e0000000000602082015250565b600061128a603b83611064565b91506112958261122e565b604082019050919050565b600060208201905081810360008301526112b98161127d565b9050919050565b7f436f6d70616e7920616c72656164792065786973747300000000000000000000600082015250565b60006112f6601683611064565b9150611301826112c0565b602082019050919050565b60006020820190508181036000830152611325816112e9565b9050919050565b7f456d61696c20766572696669636174696f6e20726571756972656420746f206360008201527f6f6e6669726d20696e737469747574696f6e20726567697374726174696f6e00602082015250565b6000611388603f83611064565b91506113938261132c565b604082019050919050565b600060208201905081810360008301526113b78161137b565b9050919050565b7f496e737469747574696f6e20616c726561647920657869737473000000000000600082015250565b60006113f4601a83611064565b91506113ff826113be565b602082019050919050565b60006020820190508181036000830152611423816113e7565b9050919050565b7f4e487b7100000000000000000000000000000000000000000000000000000000600052602260045260246000fd5b6000600282049050600182168061147157607f821691505b6020821081036114845761148361142a565b5b5091905056fea2646970667358221220241a2e196c4e7547816f2ee608fd8cfeba2d24514ac45f83af66549818e3b0fd64736f6c634300080e0033",
  "immutableReferences": {},
  "source": "// SPDX-License-Identifier: MIT\npragma solidity ^0.8.0;\n\ncontract CredentialSystem {\n    \n    struct Institution {\n        string institutionName;\n        string institutionRegisteredAddress;\n        string institutionEmail;\n        uint64 institutionPhone;\n        address institutionAdminAddress;\n    }\n    \n    struct Company {\n        string companyName;\n        string companyRegistrationNumber;\n        string companyRegistrationCertHash;\n        string companyEmail;\n        uint64 companyPhone;\n        string companyRegisteredAddress;\n        address companyAdminAddress;\n    }\n    \n    struct Event {\n        string eventName;\n        string eventOrganizer;\n        string[] eventSponsors;\n        string organizerRegistrationNumber;\n        string organizerRegistrationCertHash;\n        string organizerRegisteredAddress;\n        uint64 organizerPhone;\n        address organizerAdminAddress;\n    }\n    \n    struct Recipient {\n        string recipientName;\n        string recipientEmail;\n        string recipientPhone;\n        address recipientAddress;\n    }\n    \n    struct Credential {\n        string certType;\n        string certName;\n        string certIssuanceDate;\n        string certUploadHash;\n        string recipientName;\n        string recipientEdUid;\n        address recipientAddress;\n    }\n    \n    mapping(string => Institution) institutions;\n    mapping(string => Company) companies;\n    mapping(string => Event) events;\n    mapping(string => Recipient) recipients;\n    mapping(string => Credential) credentials;\n    mapping(string => string) sharedDocuments;\n    mapping(string => string) accessTokens;\n    \n    // Modifiers\n    modifier onlyInstitutionAdmin(string memory _institutionId) {\n        require(institutions[_institutionId].institutionAdminAddress == msg.sender, \"Only institution admin can perform this action\");\n        _;\n    }\n    \n    modifier onlyCompanyAdmin(string memory _companyId) {\n        require(companies[_companyId].companyAdminAddress == msg.sender, \"Only company admin can perform this action\");\n        _;\n    }\n    \n    modifier onlyEventOrganizer(string memory _eventId) {\n        require(events[_eventId].organizerAdminAddress == msg.sender, \"Only event organizer can perform this action\");\n        _;\n    }\n    \n    modifier onlyRecipient(string memory _recipientId) {\n        require(recipients[_recipientId].recipientAddress == msg.sender, \"Only recipient can perform this action\");\n        _;\n    }\n\n    // Function to add a new educational issuer (institution)\n    function addEducationalIssuer(\n        string memory aicteId, \n        string memory institutionName, \n        string memory institutionRegisteredAddress, \n        string memory institutionEmail,\n        bool isVerified,\n        uint64 institutionPhone\n    ) public returns (string memory) {\n        require(isVerified == true, \"Email verification required to confirm institution registration\");\n        Institution storage newInstitution = institutions[aicteId];\n        require(newInstitution.institutionAdminAddress == address(0), \"Institution already exists\");\n        newInstitution.institutionName = institutionName;\n        newInstitution.institutionRegisteredAddress = institutionRegisteredAddress;\n        newInstitution.institutionEmail = institutionEmail;\n        newInstitution.institutionPhone = institutionPhone;\n        newInstitution.institutionAdminAddress = msg.sender;\n        return aicteId;\n    }\n\n    // Function to add a new company issuer\n    function addCompanyIssuer(\n        string memory companyName,\n        string memory companyRegistrationNumber,\n        string memory companyRegistrationCertHash,\n        string memory companyEmail,\n        uint64 companyPhone, \n        string memory companyRegisteredAddress, \n        bool isVerified\n    ) public {\n        require(isVerified == true, \"Email verification required to confirm company registration\");\n        Company storage newCompany = companies[companyName];\n        require(newCompany.companyAdminAddress == address(0), \"Company already exists\");\n        newCompany.companyName = companyName;\n        newCompany.companyRegistrationNumber = companyRegistrationNumber;\n        newCompany.companyRegistrationCertHash = companyRegistrationCertHash;\n        newCompany.companyEmail = companyEmail;\n        newCompany.companyPhone = companyPhone;\n        newCompany.companyRegisteredAddress = companyRegisteredAddress;\n        newCompany.companyAdminAddress = msg.sender;\n    }\n\n    // Function to add a new event issuer\n    function addEventIssuer(\n        string memory eventName, \n        string memory eventOrganizer, \n        string[] memory eventSponsors, \n        string memory organizerRegistrationNumber, \n        string memory organizerRegistrationCertHash, \n        string memory organizerRegisteredAddress, \n        uint64 organizerPhone, \n        address organizerAdminAddress\n    ) public {\n        Event storage newEvent = events[eventName];\n        require(newEvent.organizerAdminAddress == address(0), \"Event already exists\");\n        newEvent.eventName = eventName;\n        newEvent.eventOrganizer = eventOrganizer;\n        newEvent.eventSponsors = eventSponsors;\n        newEvent.organizerRegistrationNumber = organizerRegistrationNumber;\n        newEvent.organizerRegistrationCertHash = organizerRegistrationCertHash;\n        newEvent.organizerRegisteredAddress = organizerRegisteredAddress;\n        newEvent.organizerPhone = organizerPhone;\n        newEvent.organizerAdminAddress = organizerAdminAddress;\n    }\n\n    // Function to add a new recipient\n    function addRecipient(\n        string memory recipientName, \n        string memory recipientEmail, \n        string memory recipientPhone, \n        address recipientAddress\n    ) public {\n        Recipient storage newRecipient = recipients[recipientName];\n        require(newRecipient.recipientAddress == address(0), \"Recipient already exists\");\n        newRecipient.recipientName = recipientName;\n        newRecipient.recipientEmail = recipientEmail;\n        newRecipient.recipientPhone = recipientPhone;\n        newRecipient.recipientAddress = recipientAddress;\n    }\n\n    // Add other functions as needed\n}",
  "sourcePath": "/Users/admin/git_repos/projectx/backend/contracts/credentialManager.sol",
  "compiler": {
    "name": "solc",
    "version": "0.8.14+commit.80d49f37.Emscripten.clang"
  },
  "schemaVersion": "3.4.16",
  "updatedAt": "2024-02-23T05:20:03.346Z",
  "devdoc": {
    "kind": "dev",
    "methods": {},
    "version": 1
  },
  "userdoc": {
    "kind": "user",
    "methods": {},
    "version": 1
  }
}