{
  "contractName": "CredentialSystem",
  "abi": [
    {
      "inputs": [
        {
          "internalType": "string",
          "name": "aicteId",
          "type": "string"
        },
        {
          "internalType": "string",
          "name": "institutionName",
          "type": "string"
        },
        {
          "internalType": "string",
          "name": "institutionRegisteredAddress",
          "type": "string"
        },
        {
          "internalType": "string",
          "name": "institutionEmail",
          "type": "string"
        },
        {
          "internalType": "uint64",
          "name": "institutionPhone",
          "type": "uint64"
        },
        {
          "internalType": "address",
          "name": "institutionAdminAddress",
          "type": "address"
        }
      ],
      "name": "addEducationalIssuer",
      "outputs": [
        {
          "internalType": "string",
          "name": "",
          "type": "string"
        }
      ],
      "stateMutability": "nonpayable",
      "type": "function"
    },
    {
      "inputs": [
        {
          "internalType": "string",
          "name": "companyName",
          "type": "string"
        },
        {
          "internalType": "string",
          "name": "companyRegistrationNumber",
          "type": "string"
        },
        {
          "internalType": "string",
          "name": "companyRegistrationCertHash",
          "type": "string"
        },
        {
          "internalType": "string",
          "name": "companyEmail",
          "type": "string"
        },
        {
          "internalType": "uint64",
          "name": "companyPhone",
          "type": "uint64"
        },
        {
          "internalType": "string",
          "name": "companyRegisteredAddress",
          "type": "string"
        },
        {
          "internalType": "address",
          "name": "companyAdminAddress",
          "type": "address"
        }
      ],
      "name": "addCompanyIssuer",
      "outputs": [],
      "stateMutability": "nonpayable",
      "type": "function"
    },
    {
      "inputs": [
        {
          "internalType": "string",
          "name": "eventName",
          "type": "string"
        },
        {
          "internalType": "string",
          "name": "eventOrganizer",
          "type": "string"
        },
        {
          "internalType": "string[]",
          "name": "eventSponsors",
          "type": "string[]"
        },
        {
          "internalType": "string",
          "name": "organizerRegistrationNumber",
          "type": "string"
        },
        {
          "internalType": "string",
          "name": "organizerRegistrationCertHash",
          "type": "string"
        },
        {
          "internalType": "string",
          "name": "organizerRegisteredAddress",
          "type": "string"
        },
        {
          "internalType": "uint64",
          "name": "organizerPhone",
          "type": "uint64"
        },
        {
          "internalType": "address",
          "name": "organizerAdminAddress",
          "type": "address"
        }
      ],
      "name": "addEventIssuer",
      "outputs": [],
      "stateMutability": "nonpayable",
      "type": "function"
    },
    {
      "inputs": [
        {
          "internalType": "string",
          "name": "recipientName",
          "type": "string"
        },
        {
          "internalType": "string",
          "name": "recipientEmail",
          "type": "string"
        },
        {
          "internalType": "string",
          "name": "recipientPhone",
          "type": "string"
        },
        {
          "internalType": "address",
          "name": "recipientAddress",
          "type": "address"
        }
      ],
      "name": "addRecipient",
      "outputs": [],
      "stateMutability": "nonpayable",
      "type": "function"
    }
  ],
  "bytecode": "0x608060405234801561001057600080fd5b50611076806100206000396000f3fe608060405234801561001057600080fd5b506004361061004c5760003560e01c806307b94763146100515780632253e9591461006d578063385fb9ac14610089578063c324733d146100a5575b600080fd5b61006b600480360381019061006691906109b9565b6100d5565b005b61008760048036038101906100829190610bcd565b61025f565b005b6100a3600480360381019061009e9190610d2b565b61040e565b005b6100bf60048036038101906100ba9190610de6565b610510565b6040516100cc9190610f6b565b60405180910390f35b60006040518060e001604052808981526020018881526020018781526020018681526020018567ffffffffffffffff1681526020018481526020018373ffffffffffffffffffffffffffffffffffffffff1681525090508060018960405161013d9190610fc9565b9081526020016040518091039020600082015181600001908051906020019061016792919061065a565b50602082015181600101908051906020019061018492919061065a565b5060408201518160020190805190602001906101a192919061065a565b5060608201518160030190805190602001906101be92919061065a565b5060808201518160040160006101000a81548167ffffffffffffffff021916908367ffffffffffffffff16021790555060a082015181600501908051906020019061020a92919061065a565b5060c08201518160060160006101000a81548173ffffffffffffffffffffffffffffffffffffffff021916908373ffffffffffffffffffffffffffffffffffffffff1602179055509050505050505050505050565b60006040518061010001604052808a81526020018981526020018881526020018781526020018681526020018581526020018467ffffffffffffffff1681526020018373ffffffffffffffffffffffffffffffffffffffff1681525090508060028a6040516102ce9190610fc9565b908152602001604051809103902060008201518160000190805190602001906102f892919061065a565b50602082015181600101908051906020019061031592919061065a565b5060408201518160020190805190602001906103329291906106e0565b50606082015181600301908051906020019061034f92919061065a565b50608082015181600401908051906020019061036c92919061065a565b5060a082015181600501908051906020019061038992919061065a565b5060c08201518160060160006101000a81548167ffffffffffffffff021916908367ffffffffffffffff16021790555060e08201518160060160086101000a81548173ffffffffffffffffffffffffffffffffffffffff021916908373ffffffffffffffffffffffffffffffffffffffff160217905550905050505050505050505050565b600060405180608001604052808681526020018581526020018481526020018373ffffffffffffffffffffffffffffffffffffffff1681525090508060038660405161045a9190610fc9565b9081526020016040518091039020600082015181600001908051906020019061048492919061065a565b5060208201518160010190805190602001906104a192919061065a565b5060408201518160020190805190602001906104be92919061065a565b5060608201518160030160006101000a81548173ffffffffffffffffffffffffffffffffffffffff021916908373ffffffffffffffffffffffffffffffffffffffff1602179055509050505050505050565b606060006040518060a001604052808881526020018781526020018681526020018567ffffffffffffffff1681526020018473ffffffffffffffffffffffffffffffffffffffff1681525090508060008960405161056e9190610fc9565b9081526020016040518091039020600082015181600001908051906020019061059892919061065a565b5060208201518160010190805190602001906105b592919061065a565b5060408201518160020190805190602001906105d292919061065a565b5060608201518160030160006101000a81548167ffffffffffffffff021916908367ffffffffffffffff16021790555060808201518160030160086101000a81548173ffffffffffffffffffffffffffffffffffffffff021916908373ffffffffffffffffffffffffffffffffffffffff160217905550905050879150509695505050505050565b8280546106669061100f565b90600052602060002090601f01602090048101928261068857600085556106cf565b82601f106106a157805160ff19168380011785556106cf565b828001600101855582156106cf579182015b828111156106ce5782518255916020019190600101906106b3565b5b5090506106dc9190610740565b5090565b82805482825590600052602060002090810192821561072f579160200282015b8281111561072e57825182908051906020019061071e92919061065a565b5091602001919060010190610700565b5b50905061073c919061075d565b5090565b5b80821115610759576000816000905550600101610741565b5090565b5b8082111561077d57600081816107749190610781565b5060010161075e565b5090565b50805461078d9061100f565b6000825580601f1061079f57506107be565b601f0160209004906000526020600020908101906107bd9190610740565b5b50565b6000604051905090565b600080fd5b600080fd5b600080fd5b600080fd5b6000601f19601f8301169050919050565b7f4e487b7100000000000000000000000000000000000000000000000000000000600052604160045260246000fd5b610828826107df565b810181811067ffffffffffffffff82111715610847576108466107f0565b5b80604052505050565b600061085a6107c1565b9050610866828261081f565b919050565b600067ffffffffffffffff821115610886576108856107f0565b5b61088f826107df565b9050602081019050919050565b82818337600083830152505050565b60006108be6108b98461086b565b610850565b9050828152602081018484840111156108da576108d96107da565b5b6108e584828561089c565b509392505050565b600082601f830112610902576109016107d5565b5b81356109128482602086016108ab565b91505092915050565b600067ffffffffffffffff82169050919050565b6109388161091b565b811461094357600080fd5b50565b6000813590506109558161092f565b92915050565b600073ffffffffffffffffffffffffffffffffffffffff82169050919050565b60006109868261095b565b9050919050565b6109968161097b565b81146109a157600080fd5b50565b6000813590506109b38161098d565b92915050565b600080600080600080600060e0888a0312156109d8576109d76107cb565b5b600088013567ffffffffffffffff8111156109f6576109f56107d0565b5b610a028a828b016108ed565b975050602088013567ffffffffffffffff811115610a2357610a226107d0565b5b610a2f8a828b016108ed565b965050604088013567ffffffffffffffff811115610a5057610a4f6107d0565b5b610a5c8a828b016108ed565b955050606088013567ffffffffffffffff811115610a7d57610a7c6107d0565b5b610a898a828b016108ed565b9450506080610a9a8a828b01610946565b93505060a088013567ffffffffffffffff811115610abb57610aba6107d0565b5b610ac78a828b016108ed565b92505060c0610ad88a828b016109a4565b91505092959891949750929550565b600067ffffffffffffffff821115610b0257610b016107f0565b5b602082029050602081019050919050565b600080fd5b6000610b2b610b2684610ae7565b610850565b90508083825260208201905060208402830185811115610b4e57610b4d610b13565b5b835b81811015610b9557803567ffffffffffffffff811115610b7357610b726107d5565b5b808601610b8089826108ed565b85526020850194505050602081019050610b50565b5050509392505050565b600082601f830112610bb457610bb36107d5565b5b8135610bc4848260208601610b18565b91505092915050565b600080600080600080600080610100898b031215610bee57610bed6107cb565b5b600089013567ffffffffffffffff811115610c0c57610c0b6107d0565b5b610c188b828c016108ed565b985050602089013567ffffffffffffffff811115610c3957610c386107d0565b5b610c458b828c016108ed565b975050604089013567ffffffffffffffff811115610c6657610c656107d0565b5b610c728b828c01610b9f565b965050606089013567ffffffffffffffff811115610c9357610c926107d0565b5b610c9f8b828c016108ed565b955050608089013567ffffffffffffffff811115610cc057610cbf6107d0565b5b610ccc8b828c016108ed565b94505060a089013567ffffffffffffffff811115610ced57610cec6107d0565b5b610cf98b828c016108ed565b93505060c0610d0a8b828c01610946565b92505060e0610d1b8b828c016109a4565b9150509295985092959890939650565b60008060008060808587031215610d4557610d446107cb565b5b600085013567ffffffffffffffff811115610d6357610d626107d0565b5b610d6f878288016108ed565b945050602085013567ffffffffffffffff811115610d9057610d8f6107d0565b5b610d9c878288016108ed565b935050604085013567ffffffffffffffff811115610dbd57610dbc6107d0565b5b610dc9878288016108ed565b9250506060610dda878288016109a4565b91505092959194509250565b60008060008060008060c08789031215610e0357610e026107cb565b5b600087013567ffffffffffffffff811115610e2157610e206107d0565b5b610e2d89828a016108ed565b965050602087013567ffffffffffffffff811115610e4e57610e4d6107d0565b5b610e5a89828a016108ed565b955050604087013567ffffffffffffffff811115610e7b57610e7a6107d0565b5b610e8789828a016108ed565b945050606087013567ffffffffffffffff811115610ea857610ea76107d0565b5b610eb489828a016108ed565b9350506080610ec589828a01610946565b92505060a0610ed689828a016109a4565b9150509295509295509295565b600081519050919050565b600082825260208201905092915050565b60005b83811015610f1d578082015181840152602081019050610f02565b83811115610f2c576000848401525b50505050565b6000610f3d82610ee3565b610f478185610eee565b9350610f57818560208601610eff565b610f60816107df565b840191505092915050565b60006020820190508181036000830152610f858184610f32565b905092915050565b600081905092915050565b6000610fa382610ee3565b610fad8185610f8d565b9350610fbd818560208601610eff565b80840191505092915050565b6000610fd58284610f98565b915081905092915050565b7f4e487b7100000000000000000000000000000000000000000000000000000000600052602260045260246000fd5b6000600282049050600182168061102757607f821691505b60208210810361103a57611039610fe0565b5b5091905056fea26469706673582212208c005f659a1b4a00a15259a31c9fed75438d0a903d66eddba68de25131aa46e564736f6c634300080e0033",
  "immutableReferences": {},
  "source": "// SPDX-License-Identifier: MIT\npragma solidity ^0.8.0;\n\ncontract CredentialSystem {\n    \n    struct Institution {\n        string institutionName;\n        string institutionRegisteredAddress;\n        string institutionEmail;\n        uint64 institutionPhone;\n        address institutionAdminAddress;\n    }\n    \n    struct Company {\n        string companyName;\n        string companyRegistrationNumber;\n        string companyRegistrationCertHash;\n        string companyEmail;\n        uint64 companyPhone;\n        string companyRegisteredAddress;\n        address companyAdminAddress;\n    }\n    \n    struct Event {\n        string eventName;\n        string eventOrganizer;\n        string[] eventSponsors;\n        string organizerRegistrationNumber;\n        string organizerRegistrationCertHash;\n        string organizerRegisteredAddress;\n        uint64 organizerPhone;\n        address organizerAdminAddress;\n    }\n    \n    struct Recipient {\n        string recipientName;\n        string recipientEmail;\n        string recipientPhone;\n        address recipientAddress;\n    }\n    \n    struct Credential {\n        string certType;\n        string certName;\n        string certIssuanceDate;\n        string certUploadHash;\n        string recipientName;\n        string recipientEdUid;\n        address recipientAddress;\n    }\n    \n    mapping(string => Institution) institutions;\n    mapping(string => Company) companies;\n    mapping(string => Event) events;\n    mapping(string => Recipient) recipients;\n    mapping(string => Credential) credentials;\n    mapping(string => string) sharedDocuments;\n    mapping(string => string) accessTokens;\n    \n    // Modifiers\n    modifier onlyInstitutionAdmin(string memory _institutionId) {\n        require(institutions[_institutionId].institutionAdminAddress == msg.sender, \"Only institution admin can perform this action\");\n        _;\n    }\n    \n    modifier onlyCompanyAdmin(string memory _companyId) {\n        require(companies[_companyId].companyAdminAddress == msg.sender, \"Only company admin can perform this action\");\n        _;\n    }\n    \n    modifier onlyEventOrganizer(string memory _eventId) {\n        require(events[_eventId].organizerAdminAddress == msg.sender, \"Only event organizer can perform this action\");\n        _;\n    }\n    \n    modifier onlyRecipient(string memory _recipientId) {\n        require(recipients[_recipientId].recipientAddress == msg.sender, \"Only recipient can perform this action\");\n        _;\n    }\n\n    // Function to add a new educational issuer (institution)\n    function addEducationalIssuer(\n        string memory aicteId, \n        string memory institutionName, \n        string memory institutionRegisteredAddress, \n        string memory institutionEmail,\n        uint64 institutionPhone, \n        address institutionAdminAddress\n    ) public returns (string memory) {\n        Institution memory newInstitution = Institution(institutionName, institutionRegisteredAddress, institutionEmail, institutionPhone, institutionAdminAddress);\n        institutions[aicteId] = newInstitution;\n        return aicteId;\n    }\n\n    // create a onBoard mechanism for all the entities\n    // function onBoardEdIns(string memory aicteId, string memory institutionEmail) private view returns (bytes32 encryptedSecret) {\n    //     uint256 randomNumber = uint256(keccak256(abi.encodePacked(aicteId, institutionEmail, block.timestamp)));\n    //     encryptedSecret = keccak256(abi.encodePacked(randomNumber));\n    //     return encryptedSecret;\n    // }\n\n    // Function to add a new company issuer\n    function addCompanyIssuer(string memory companyName, string memory companyRegistrationNumber, string memory companyRegistrationCertHash, string memory companyEmail, uint64 companyPhone, string memory companyRegisteredAddress, address companyAdminAddress) public {\n        Company memory newCompany = Company(companyName, companyRegistrationNumber, companyRegistrationCertHash, companyEmail, companyPhone, companyRegisteredAddress, companyAdminAddress);\n        companies[companyName] = newCompany;\n    }\n\n    // Function to add a new event issuer\n    function addEventIssuer(string memory eventName, string memory eventOrganizer, string[] memory eventSponsors, string memory organizerRegistrationNumber, string memory organizerRegistrationCertHash, string memory organizerRegisteredAddress, uint64 organizerPhone, address organizerAdminAddress) public {\n        Event memory newEvent = Event(eventName, eventOrganizer, eventSponsors, organizerRegistrationNumber, organizerRegistrationCertHash, organizerRegisteredAddress, organizerPhone, organizerAdminAddress);\n        events[eventName] = newEvent;\n    }\n\n    // Function to add a new recipient\n    function addRecipient(string memory recipientName, string memory recipientEmail, string memory recipientPhone, address recipientAddress) public {\n        Recipient memory newRecipient = Recipient(recipientName, recipientEmail, recipientPhone, recipientAddress);\n        recipients[recipientName] = newRecipient;\n    }\n\n    // Add other functions as needed\n}",
  "sourcePath": "/Users/admin/git_repos/projectx/backend/contracts/credentialManager.sol",
  "compiler": {
    "name": "solc",
    "version": "0.8.14+commit.80d49f37.Emscripten.clang"
  },
  "schemaVersion": "3.4.16",
  "updatedAt": "2024-02-22T10:51:04.747Z",
  "devdoc": {
    "kind": "dev",
    "methods": {},
    "version": 1
  },
  "userdoc": {
    "kind": "user",
    "methods": {},
    "version": 1
  }
}