{
  "contractName": "testContract",
  "abi": [
    {
      "inputs": [],
      "name": "getOwner",
      "outputs": [
        {
          "internalType": "address",
          "name": "owner",
          "type": "address"
        }
      ],
      "stateMutability": "view",
      "type": "function",
      "constant": true
    }
  ],
  "bytecode": "0x608060405234801561001057600080fd5b5060db8061001f6000396000f3fe6080604052348015600f57600080fd5b506004361060285760003560e01c8063893d20e814602d575b600080fd5b60336047565b604051603e9190608c565b60405180910390f35b600030905090565b600073ffffffffffffffffffffffffffffffffffffffff82169050919050565b6000607882604f565b9050919050565b608681606f565b82525050565b6000602082019050609f6000830184607f565b9291505056fea2646970667358221220532f8e1c25a9c8bd32d7c27a00bd793849f1bdbaf6798bd5e1ad3f35a6e1a29d64736f6c634300080e0033",
  "immutableReferences": {},
  "source": "pragma solidity ^0.8.0;\n\ncontract testContract {\n\n    function getOwner() public view returns(address owner) {\n        return address(this);\n    }\n}",
  "sourcePath": "/Users/admin/git_repos/projectx/backend/contracts/testContract.sol",
  "compiler": {
    "name": "solc",
    "version": "0.8.14+commit.80d49f37.Emscripten.clang"
  },
  "schemaVersion": "3.4.16",
  "updatedAt": "2024-02-18T07:56:02.298Z",
  "networkType": "ethereum",
  "devdoc": {
    "kind": "dev",
    "methods": {},
    "version": 1
  },
  "userdoc": {
    "kind": "user",
    "methods": {},
    "version": 1
  }
}